{
  "contractName": "Articles",
  "abi": [
    {
      "constant": true,
      "inputs": [
        {
          "name": "",
          "type": "uint256"
        }
      ],
      "name": "publicArticles",
      "outputs": [
        {
          "name": "title",
          "type": "string"
        },
        {
          "name": "description",
          "type": "string"
        },
        {
          "name": "picture",
          "type": "string"
        },
        {
          "name": "owner",
          "type": "address"
        }
      ],
      "payable": false,
      "stateMutability": "view",
      "type": "function"
    },
    {
      "constant": false,
      "inputs": [],
      "name": "renounceOwnership",
      "outputs": [],
      "payable": false,
      "stateMutability": "nonpayable",
      "type": "function"
    },
    {
      "constant": true,
      "inputs": [],
      "name": "owner",
      "outputs": [
        {
          "name": "",
          "type": "address"
        }
      ],
      "payable": false,
      "stateMutability": "view",
      "type": "function"
    },
    {
      "constant": true,
      "inputs": [],
      "name": "isOwner",
      "outputs": [
        {
          "name": "",
          "type": "bool"
        }
      ],
      "payable": false,
      "stateMutability": "view",
      "type": "function"
    },
    {
      "constant": false,
      "inputs": [
        {
          "name": "newOwner",
          "type": "address"
        }
      ],
      "name": "transferOwnership",
      "outputs": [],
      "payable": false,
      "stateMutability": "nonpayable",
      "type": "function"
    },
    {
      "inputs": [],
      "payable": false,
      "stateMutability": "nonpayable",
      "type": "constructor"
    },
    {
      "anonymous": false,
      "inputs": [
        {
          "indexed": false,
          "name": "title",
          "type": "string"
        },
        {
          "indexed": false,
          "name": "description",
          "type": "string"
        },
        {
          "indexed": false,
          "name": "picture",
          "type": "string"
        },
        {
          "indexed": false,
          "name": "owner",
          "type": "address"
        }
      ],
      "name": "LogNewArticle",
      "type": "event"
    },
    {
      "anonymous": false,
      "inputs": [
        {
          "indexed": true,
          "name": "previousOwner",
          "type": "address"
        },
        {
          "indexed": true,
          "name": "newOwner",
          "type": "address"
        }
      ],
      "name": "OwnershipTransferred",
      "type": "event"
    },
    {
      "constant": false,
      "inputs": [
        {
          "name": "_title",
          "type": "string"
        },
        {
          "name": "_description",
          "type": "string"
        },
        {
          "name": "_picture",
          "type": "string"
        }
      ],
      "name": "addArticle",
      "outputs": [],
      "payable": false,
      "stateMutability": "nonpayable",
      "type": "function"
    },
    {
      "constant": false,
      "inputs": [
        {
          "name": "_title",
          "type": "string"
        },
        {
          "name": "_description",
          "type": "string"
        },
        {
          "name": "_picture",
          "type": "string"
        }
      ],
      "name": "addPrivateArticle",
      "outputs": [],
      "payable": false,
      "stateMutability": "nonpayable",
      "type": "function"
    },
    {
      "constant": true,
      "inputs": [],
      "name": "getArticles",
      "outputs": [
        {
          "components": [
            {
              "name": "title",
              "type": "string"
            },
            {
              "name": "description",
              "type": "string"
            },
            {
              "name": "picture",
              "type": "string"
            },
            {
              "name": "owner",
              "type": "address"
            }
          ],
          "name": "",
          "type": "tuple[]"
        }
      ],
      "payable": false,
      "stateMutability": "view",
      "type": "function"
    },
    {
      "constant": true,
      "inputs": [],
      "name": "getPrivateArticles",
      "outputs": [
        {
          "components": [
            {
              "name": "title",
              "type": "string"
            },
            {
              "name": "description",
              "type": "string"
            },
            {
              "name": "picture",
              "type": "string"
            },
            {
              "name": "owner",
              "type": "address"
            }
          ],
          "name": "",
          "type": "tuple[]"
        }
      ],
      "payable": false,
      "stateMutability": "view",
      "type": "function"
    }
  ],
  "bytecode": "0x608060405234801561001057600080fd5b50336000806101000a81548173ffffffffffffffffffffffffffffffffffffffff021916908373ffffffffffffffffffffffffffffffffffffffff1602179055506000809054906101000a900473ffffffffffffffffffffffffffffffffffffffff1673ffffffffffffffffffffffffffffffffffffffff16600073ffffffffffffffffffffffffffffffffffffffff167f8be0079c531659141344cd1fd0a4f28419497f9722a3daafe3b4186f6b6457e060405160405180910390a36114ab806100dc6000396000f300608060405260043610610099576000357c0100000000000000000000000000000000000000000000000000000000900463ffffffff1680630252da8c1461009e57806312131ca1146100de5780636529f44a14610109578063715018a6146101345780637c8bf88c1461014b5780638da5cb5b146101745780638f32d59b1461019f57806391f0576a146101ca578063f2fde38b146101f3575b600080fd5b3480156100aa57600080fd5b506100c560048036036100c09190810190611096565b61021c565b6040516100d594939291906112da565b60405180910390f35b3480156100ea57600080fd5b506100f3610443565b6040516101009190611243565b60405180910390f35b34801561011557600080fd5b5061011e61071c565b60405161012b9190611243565b60405180910390f35b34801561014057600080fd5b506101496109b8565b005b34801561015757600080fd5b50610172600480360361016d9190810190610fff565b610a8a565b005b34801561018057600080fd5b50610189610bd2565b6040516101969190611228565b60405180910390f35b3480156101ab57600080fd5b506101b4610bfb565b6040516101c19190611265565b60405180910390f35b3480156101d657600080fd5b506101f160048036036101ec9190810190610fff565b610c52565b005b3480156101ff57600080fd5b5061021a60048036036102159190810190610fd6565b610d9a565b005b60018181548110151561022b57fe5b9060005260206000209060040201600091509050806000018054600181600116156101000203166002900480601f0160208091040260200160405190810160405280929190818152602001828054600181600116156101000203166002900480156102d75780601f106102ac576101008083540402835291602001916102d7565b820191906000526020600020905b8154815290600101906020018083116102ba57829003601f168201915b505050505090806001018054600181600116156101000203166002900480601f0160208091040260200160405190810160405280929190818152602001828054600181600116156101000203166002900480156103755780601f1061034a57610100808354040283529160200191610375565b820191906000526020600020905b81548152906001019060200180831161035857829003601f168201915b505050505090806002018054600181600116156101000203166002900480601f0160208091040260200160405190810160405280929190818152602001828054600181600116156101000203166002900480156104135780601f106103e857610100808354040283529160200191610413565b820191906000526020600020905b8154815290600101906020018083116103f657829003601f168201915b5050505050908060030160009054906101000a900473ffffffffffffffffffffffffffffffffffffffff16905084565b6060600260003373ffffffffffffffffffffffffffffffffffffffff1673ffffffffffffffffffffffffffffffffffffffff168152602001908152602001600020805480602002602001604051908101604052809291908181526020016000905b82821015610713578382906000526020600020906004020160806040519081016040529081600082018054600181600116156101000203166002900480601f0160208091040260200160405190810160405280929190818152602001828054600181600116156101000203166002900480156105615780601f1061053657610100808354040283529160200191610561565b820191906000526020600020905b81548152906001019060200180831161054457829003601f168201915b50505050508152602001600182018054600181600116156101000203166002900480601f0160208091040260200160405190810160405280929190818152602001828054600181600116156101000203166002900480156106035780601f106105d857610100808354040283529160200191610603565b820191906000526020600020905b8154815290600101906020018083116105e657829003601f168201915b50505050508152602001600282018054600181600116156101000203166002900480601f0160208091040260200160405190810160405280929190818152602001828054600181600116156101000203166002900480156106a55780601f1061067a576101008083540402835291602001916106a5565b820191906000526020600020905b81548152906001019060200180831161068857829003601f168201915b505050505081526020016003820160009054906101000a900473ffffffffffffffffffffffffffffffffffffffff1673ffffffffffffffffffffffffffffffffffffffff1673ffffffffffffffffffffffffffffffffffffffff1681525050815260200190600101906104a4565b50505050905090565b60606001805480602002602001604051908101604052809291908181526020016000905b828210156109af578382906000526020600020906004020160806040519081016040529081600082018054600181600116156101000203166002900480601f0160208091040260200160405190810160405280929190818152602001828054600181600116156101000203166002900480156107fd5780601f106107d2576101008083540402835291602001916107fd565b820191906000526020600020905b8154815290600101906020018083116107e057829003601f168201915b50505050508152602001600182018054600181600116156101000203166002900480601f01602080910402602001604051908101604052809291908181526020018280546001816001161561010002031660029004801561089f5780601f106108745761010080835404028352916020019161089f565b820191906000526020600020905b81548152906001019060200180831161088257829003601f168201915b50505050508152602001600282018054600181600116156101000203166002900480601f0160208091040260200160405190810160405280929190818152602001828054600181600116156101000203166002900480156109415780601f1061091657610100808354040283529160200191610941565b820191906000526020600020905b81548152906001019060200180831161092457829003601f168201915b505050505081526020016003820160009054906101000a900473ffffffffffffffffffffffffffffffffffffffff1673ffffffffffffffffffffffffffffffffffffffff1673ffffffffffffffffffffffffffffffffffffffff168152505081526020019060010190610740565b50505050905090565b6109c0610bfb565b15156109cb57600080fd5b600073ffffffffffffffffffffffffffffffffffffffff166000809054906101000a900473ffffffffffffffffffffffffffffffffffffffff1673ffffffffffffffffffffffffffffffffffffffff167f8be0079c531659141344cd1fd0a4f28419497f9722a3daafe3b4186f6b6457e060405160405180910390a360008060006101000a81548173ffffffffffffffffffffffffffffffffffffffff021916908373ffffffffffffffffffffffffffffffffffffffff160217905550565b600260003373ffffffffffffffffffffffffffffffffffffffff1673ffffffffffffffffffffffffffffffffffffffff1681526020019081526020016000206080604051908101604052808581526020018481526020018381526020013373ffffffffffffffffffffffffffffffffffffffff16815250908060018154018082558091505090600182039060005260206000209060040201600090919290919091506000820151816000019080519060200190610b48929190610eb3565b506020820151816001019080519060200190610b65929190610eb3565b506040820151816002019080519060200190610b82929190610eb3565b5060608201518160030160006101000a81548173ffffffffffffffffffffffffffffffffffffffff021916908373ffffffffffffffffffffffffffffffffffffffff160217905550505050505050565b60008060009054906101000a900473ffffffffffffffffffffffffffffffffffffffff16905090565b60008060009054906101000a900473ffffffffffffffffffffffffffffffffffffffff1673ffffffffffffffffffffffffffffffffffffffff163373ffffffffffffffffffffffffffffffffffffffff1614905090565b60016080604051908101604052808581526020018481526020018381526020013373ffffffffffffffffffffffffffffffffffffffff16815250908060018154018082558091505090600182039060005260206000209060040201600090919290919091506000820151816000019080519060200190610cd3929190610eb3565b506020820151816001019080519060200190610cf0929190610eb3565b506040820151816002019080519060200190610d0d929190610eb3565b5060608201518160030160006101000a81548173ffffffffffffffffffffffffffffffffffffffff021916908373ffffffffffffffffffffffffffffffffffffffff1602179055505050507f6ee7633169b39e0d31f5fb264d152d6b7c4b1f074f37fd586cca24dc6f179ad383838333604051610d8d9493929190611280565b60405180910390a1505050565b610da2610bfb565b1515610dad57600080fd5b610db681610db9565b50565b600073ffffffffffffffffffffffffffffffffffffffff168173ffffffffffffffffffffffffffffffffffffffff1614151515610df557600080fd5b8073ffffffffffffffffffffffffffffffffffffffff166000809054906101000a900473ffffffffffffffffffffffffffffffffffffffff1673ffffffffffffffffffffffffffffffffffffffff167f8be0079c531659141344cd1fd0a4f28419497f9722a3daafe3b4186f6b6457e060405160405180910390a3806000806101000a81548173ffffffffffffffffffffffffffffffffffffffff021916908373ffffffffffffffffffffffffffffffffffffffff16021790555050565b828054600181600116156101000203166002900490600052602060002090601f016020900481019282601f10610ef457805160ff1916838001178555610f22565b82800160010185558215610f22579182015b82811115610f21578251825591602001919060010190610f06565b5b509050610f2f9190610f33565b5090565b610f5591905b80821115610f51576000816000905550600101610f39565b5090565b90565b6000610f6482356113f4565b905092915050565b600082601f8301121515610f7f57600080fd5b8135610f92610f8d82611361565b611334565b91508082526020830160208301858383011115610fae57600080fd5b610fb983828461141e565b50505092915050565b6000610fce8235611414565b905092915050565b600060208284031215610fe857600080fd5b6000610ff684828501610f58565b91505092915050565b60008060006060848603121561101457600080fd5b600084013567ffffffffffffffff81111561102e57600080fd5b61103a86828701610f6c565b935050602084013567ffffffffffffffff81111561105757600080fd5b61106386828701610f6c565b925050604084013567ffffffffffffffff81111561108057600080fd5b61108c86828701610f6c565b9150509250925092565b6000602082840312156110a857600080fd5b60006110b684828501610fc2565b91505092915050565b6110c8816113c8565b82525050565b60006110d98261139a565b808452602084019350836020820285016110f28561138d565b60005b8481101561112b57838303885261110d8383516111b7565b9250611118826113bb565b91506020880197506001810190506110f5565b508196508694505050505092915050565b611145816113e8565b82525050565b6000611156826113b0565b80845261116a81602086016020860161142d565b61117381611460565b602085010191505092915050565b600061118c826113a5565b8084526111a081602086016020860161142d565b6111a981611460565b602085010191505092915050565b600060808301600083015184820360008601526111d48282611181565b915050602083015184820360208601526111ee8282611181565b915050604083015184820360408601526112088282611181565b915050606083015161121d60608601826110bf565b508091505092915050565b600060208201905061123d60008301846110bf565b92915050565b6000602082019050818103600083015261125d81846110ce565b905092915050565b600060208201905061127a600083018461113c565b92915050565b6000608082019050818103600083015261129a818761114b565b905081810360208301526112ae818661114b565b905081810360408301526112c2818561114b565b90506112d160608301846110bf565b95945050505050565b600060808201905081810360008301526112f48187611181565b905081810360208301526113088186611181565b9050818103604083015261131c8185611181565b905061132b60608301846110bf565b95945050505050565b6000604051905081810181811067ffffffffffffffff8211171561135757600080fd5b8060405250919050565b600067ffffffffffffffff82111561137857600080fd5b601f19601f8301169050602081019050919050565b6000602082019050919050565b600081519050919050565b600081519050919050565b600081519050919050565b6000602082019050919050565b600073ffffffffffffffffffffffffffffffffffffffff82169050919050565b60008115159050919050565b600073ffffffffffffffffffffffffffffffffffffffff82169050919050565b6000819050919050565b82818337600083830152505050565b60005b8381101561144b578082015181840152602081019050611430565b8381111561145a576000848401525b50505050565b6000601f19601f83011690509190505600a265627a7a723058200e628dbffbe93ea1c269c9eb5e0de075665bca5c2311d510f64f868d8905597d6c6578706572696d656e74616cf50037",
  "source": "pragma solidity ^0.4.25;\r\npragma experimental ABIEncoderV2;\r\n\r\nimport \"node_modules/openzeppelin-solidity/contracts/ownership/Ownable.sol\";\r\n\r\ncontract Articles is Ownable {\r\n\r\n    struct Article {\r\n        string title;\r\n        string description;\r\n        string picture;\r\n        address owner;\r\n    }\r\n\r\n    Article[] public publicArticles;\r\n    mapping(address => Article[]) privateArticles;\r\n\r\n    event LogNewArticle(string title, string description, string picture, address owner);\r\n\r\n    constructor() public { }\r\n\r\n    function addArticle(string _title, string _description, string _picture) public {\r\n        publicArticles.push(Article(_title, _description, _picture, msg.sender));\r\n\r\n        emit LogNewArticle(_title, _description, _picture, msg.sender);\r\n    }\r\n\r\n    function addPrivateArticle(string _title, string _description, string _picture) public {\r\n        privateArticles[msg.sender].push(Article(_title, _description, _picture, msg.sender));\r\n    }\r\n\r\n    function getArticles() public view returns (Article[]) {\r\n        return publicArticles;\r\n    }\r\n\r\n    function getPrivateArticles() public view returns (Article[]) {\r\n        return privateArticles[msg.sender];\r\n    }\r\n}",
  "sourcePath": "C:\\work\\LimeAcademy\\project\\contracts\\Articles.sol",
  "compiler": {
    "name": "solc",
    "version": "0.4.25+commit.59dbf8f1.Emscripten.clang"
  },
  "schemaVersion": "0.9.16",
  "updatedAt": "2018-11-30T14:17:56.576Z"
}