{
  "contractName": "Car",
  "abi": [
    {
      "constant": false,
      "inputs": [],
      "name": "renounceOwnership",
      "outputs": [],
      "payable": false,
      "stateMutability": "nonpayable",
      "type": "function"
    },
    {
      "constant": true,
      "inputs": [],
      "name": "owner",
      "outputs": [
        {
          "name": "",
          "type": "address"
        }
      ],
      "payable": false,
      "stateMutability": "view",
      "type": "function"
    },
    {
      "constant": true,
      "inputs": [],
      "name": "isOwner",
      "outputs": [
        {
          "name": "",
          "type": "bool"
        }
      ],
      "payable": false,
      "stateMutability": "view",
      "type": "function"
    },
    {
      "constant": true,
      "inputs": [],
      "name": "price",
      "outputs": [
        {
          "name": "",
          "type": "uint256"
        }
      ],
      "payable": false,
      "stateMutability": "view",
      "type": "function"
    },
    {
      "constant": true,
      "inputs": [],
      "name": "contractOwner",
      "outputs": [
        {
          "name": "",
          "type": "address"
        }
      ],
      "payable": false,
      "stateMutability": "view",
      "type": "function"
    },
    {
      "constant": false,
      "inputs": [
        {
          "name": "newOwner",
          "type": "address"
        }
      ],
      "name": "transferOwnership",
      "outputs": [],
      "payable": false,
      "stateMutability": "nonpayable",
      "type": "function"
    },
    {
      "inputs": [
        {
          "name": "_contractOwner",
          "type": "address"
        }
      ],
      "payable": false,
      "stateMutability": "nonpayable",
      "type": "constructor"
    },
    {
      "anonymous": false,
      "inputs": [
        {
          "indexed": false,
          "name": "_withdrawAmount",
          "type": "uint256"
        }
      ],
      "name": "LogWithdraw",
      "type": "event"
    },
    {
      "anonymous": false,
      "inputs": [
        {
          "indexed": true,
          "name": "previousOwner",
          "type": "address"
        },
        {
          "indexed": true,
          "name": "newOwner",
          "type": "address"
        }
      ],
      "name": "OwnershipTransferred",
      "type": "event"
    },
    {
      "constant": false,
      "inputs": [
        {
          "name": "_newPrice",
          "type": "uint256"
        }
      ],
      "name": "setNewPrice",
      "outputs": [],
      "payable": false,
      "stateMutability": "nonpayable",
      "type": "function"
    },
    {
      "constant": false,
      "inputs": [
        {
          "name": "_brand",
          "type": "string"
        },
        {
          "name": "_model",
          "type": "string"
        }
      ],
      "name": "buy",
      "outputs": [],
      "payable": true,
      "stateMutability": "payable",
      "type": "function"
    },
    {
      "constant": false,
      "inputs": [],
      "name": "withdrawFunds",
      "outputs": [
        {
          "name": "",
          "type": "bool"
        }
      ],
      "payable": false,
      "stateMutability": "nonpayable",
      "type": "function"
    }
  ],
  "bytecode": "0x6080604052670de0b6b3a764000060025534801561001c57600080fd5b5060405160208061092e83398101806040528101908080519060200190929190505050336000806101000a81548173ffffffffffffffffffffffffffffffffffffffff021916908373ffffffffffffffffffffffffffffffffffffffff1602179055506000809054906101000a900473ffffffffffffffffffffffffffffffffffffffff1673ffffffffffffffffffffffffffffffffffffffff16600073ffffffffffffffffffffffffffffffffffffffff167f8be0079c531659141344cd1fd0a4f28419497f9722a3daafe3b4186f6b6457e060405160405180910390a380600160006101000a81548173ffffffffffffffffffffffffffffffffffffffff021916908373ffffffffffffffffffffffffffffffffffffffff160217905550506107e28061014c6000396000f300608060405260043610610099576000357c0100000000000000000000000000000000000000000000000000000000900463ffffffff16806324600fc31461009e578063715018a6146100cd5780638da5cb5b146100e45780638f32d59b1461013b578063a035b1fe1461016a578063c63e529b14610195578063ce606ee014610237578063ee8cdd4e1461028e578063f2fde38b146102bb575b600080fd5b3480156100aa57600080fd5b506100b36102fe565b604051808215151515815260200191505060405180910390f35b3480156100d957600080fd5b506100e26103e4565b005b3480156100f057600080fd5b506100f96104b6565b604051808273ffffffffffffffffffffffffffffffffffffffff1673ffffffffffffffffffffffffffffffffffffffff16815260200191505060405180910390f35b34801561014757600080fd5b506101506104df565b604051808215151515815260200191505060405180910390f35b34801561017657600080fd5b5061017f610536565b6040518082815260200191505060405180910390f35b610235600480360381019080803590602001908201803590602001908080601f0160208091040260200160405190810160405280939291908181526020018383808284378201915050505050509192919290803590602001908201803590602001908080601f016020809104026020016040519081016040528093929190818152602001838380828437820191505050505050919291929050505061053c565b005b34801561024357600080fd5b5061024c6105ba565b604051808273ffffffffffffffffffffffffffffffffffffffff1673ffffffffffffffffffffffffffffffffffffffff16815260200191505060405180910390f35b34801561029a57600080fd5b506102b9600480360381019080803590602001909291905050506105e0565b005b3480156102c757600080fd5b506102fc600480360381019080803573ffffffffffffffffffffffffffffffffffffffff16906020019092919050505061069d565b005b60006103086104df565b151561031357600080fd5b600160009054906101000a900473ffffffffffffffffffffffffffffffffffffffff1673ffffffffffffffffffffffffffffffffffffffff166108fc3073ffffffffffffffffffffffffffffffffffffffff16319081150290604051600060405180830381858888f19350505050158015610392573d6000803e3d6000fd5b507f879a83fc17750905b8aef4ef85e6701b84a50e15d4463dc3c2e7fb0f9dbcf75d3073ffffffffffffffffffffffffffffffffffffffff16316040518082815260200191505060405180910390a190565b6103ec6104df565b15156103f757600080fd5b600073ffffffffffffffffffffffffffffffffffffffff166000809054906101000a900473ffffffffffffffffffffffffffffffffffffffff1673ffffffffffffffffffffffffffffffffffffffff167f8be0079c531659141344cd1fd0a4f28419497f9722a3daafe3b4186f6b6457e060405160405180910390a360008060006101000a81548173ffffffffffffffffffffffffffffffffffffffff021916908373ffffffffffffffffffffffffffffffffffffffff160217905550565b60008060009054906101000a900473ffffffffffffffffffffffffffffffffffffffff16905090565b60008060009054906101000a900473ffffffffffffffffffffffffffffffffffffffff1673ffffffffffffffffffffffffffffffffffffffff163373ffffffffffffffffffffffffffffffffffffffff1614905090565b60025481565b60025434101515156105b6576040517f08c379a00000000000000000000000000000000000000000000000000000000081526004018080602001828103825260138152602001807f6572726f722076616c756520746f6f206c6f770000000000000000000000000081525060200191505060405180910390fd5b5050565b600160009054906101000a900473ffffffffffffffffffffffffffffffffffffffff1681565b8060008111151561067f576040517f08c379a00000000000000000000000000000000000000000000000000000000081526004018080602001828103825260218152602001807f50726963652073686f756c642062652067726561746572207468616e207a657281526020017f6f0000000000000000000000000000000000000000000000000000000000000081525060400191505060405180910390fd5b6106876104df565b151561069257600080fd5b816002819055505050565b6106a56104df565b15156106b057600080fd5b6106b9816106bc565b50565b600073ffffffffffffffffffffffffffffffffffffffff168173ffffffffffffffffffffffffffffffffffffffff16141515156106f857600080fd5b8073ffffffffffffffffffffffffffffffffffffffff166000809054906101000a900473ffffffffffffffffffffffffffffffffffffffff1673ffffffffffffffffffffffffffffffffffffffff167f8be0079c531659141344cd1fd0a4f28419497f9722a3daafe3b4186f6b6457e060405160405180910390a3806000806101000a81548173ffffffffffffffffffffffffffffffffffffffff021916908373ffffffffffffffffffffffffffffffffffffffff160217905550505600a165627a7a72305820a12ebc7925756e0799b19ea450826e3ebb7539867374fa4b1ab1f91bed527a730029",
  "source": "pragma solidity ^0.4.25;\r\n\r\nimport \"node_modules/openzeppelin-solidity/contracts/ownership/Ownable.sol\";\r\n\r\ncontract Car is Ownable {\r\n\r\n    address public contractOwner;\r\n\r\n    uint256 public price = 1 ether;\r\n    //address[] public historyOwners;\r\n    //string public slogan;\r\n\r\n    mapping(bytes => address) carOwnedBy;\r\n    mapping(bytes => uint256) carPrice;\r\n    mapping(address => bytes[]) ownerCars;\r\n    //mapping(address => uint) carOwnersCount;\r\n\r\n    //event LogBillboardBought(string _slogan, address buyer);\r\n\r\n    constructor(address _contractOwner) public {\r\n        contractOwner = _contractOwner;\r\n    }\r\n\r\n    modifier onlyPositiv(uint256 _newPrice) {\r\n        require(_newPrice > 0, \"Price should be greater than zero\");\r\n        _;\r\n    }\r\n\r\n    function setNewPrice(uint256 _newPrice) public onlyPositiv(_newPrice) onlyOwner() {\r\n        price = _newPrice;\r\n    }\r\n\r\n    event LogWithdraw(uint256 _withdrawAmount);\r\n\r\n    \r\n\r\n    function buy(string _brand, string _model) public payable {\r\n        require(msg.value >= price, \"error value too low\");\r\n        \r\n        //bytes memory carAddress = _generateCarId(_brand, _model);\r\n\r\n        //when availiable\r\n        //carOwnedBy[carAddress] = msg.sender;\r\n        //todo when car is already taken\r\n        \r\n\r\n        //carPrice[carAddress] = msg.value;\r\n        //todo double car price\r\n        //todo extract 150%money, keep 50% for the contract\r\n\r\n\r\n        //add to owner\r\n        //ownerCars[msg.sender].push(carAddress);\r\n        //todo remove from old owner\r\n        \r\n\r\n\r\n        //moneySpent[msg.sender] += msg.value;\r\n        //emit LogBillboardBought(_slogan, msg.sender);\r\n    }\r\n\r\n    // function _generateCarId(string _brand, string _model) public pure returns (bytes)  {\r\n    //     //bytes32 carAddress = keccak256(abi.encode(_toLower(_brand), _toLower(_model)));\r\n    //     return abi.encode(keccak256(_toLower(_brand)), keccak256(_toLower(_model)));\r\n\t// }\r\n\r\n    // function _toLower(string str) public pure returns (string)  {\r\n\t// \tbytes memory bStr = bytes(str);\r\n\t// \tbytes memory bLower = new bytes(bStr.length);\r\n\t// \tfor (uint i = 0; i < bStr.length; i++) {\r\n\t// \t\t// Uppercase character...\r\n\t// \t\tif ((bStr[i] >= 65) && (bStr[i] <= 90)) {\r\n\t// \t\t\t// So we add 32 to make it lowercase\r\n\t// \t\t\tbLower[i] = bytes1(int(bStr[i]) + 32);\r\n\t// \t\t} else {\r\n\t// \t\t\tbLower[i] = bStr[i];\r\n\t// \t\t}\r\n\t// \t}\r\n\t// \treturn string(bLower);\r\n\t// }\r\n\r\n    function withdrawFunds() public onlyOwner() returns(bool) {\r\n        contractOwner.transfer(address(this).balance);\r\n    \r\n        emit LogWithdraw(address(this).balance);\r\n    }\r\n}",
  "sourcePath": "C:\\work\\LimeAcademy\\project\\contracts\\Car.sol",
  "compiler": {
    "name": "solc",
    "version": "0.4.25+commit.59dbf8f1.Emscripten.clang"
  },
  "schemaVersion": "0.9.16",
  "updatedAt": "2018-11-30T14:17:56.582Z"
}