{
  "contractName": "ShishaToken",
  "abi": [
    {
      "constant": true,
      "inputs": [
        {
          "name": "interfaceId",
          "type": "bytes4"
        }
      ],
      "name": "supportsInterface",
      "outputs": [
        {
          "name": "",
          "type": "bool"
        }
      ],
      "payable": false,
      "stateMutability": "view",
      "type": "function"
    },
    {
      "constant": true,
      "inputs": [
        {
          "name": "tokenId",
          "type": "uint256"
        }
      ],
      "name": "getApproved",
      "outputs": [
        {
          "name": "",
          "type": "address"
        }
      ],
      "payable": false,
      "stateMutability": "view",
      "type": "function"
    },
    {
      "constant": false,
      "inputs": [
        {
          "name": "to",
          "type": "address"
        },
        {
          "name": "tokenId",
          "type": "uint256"
        }
      ],
      "name": "approve",
      "outputs": [],
      "payable": false,
      "stateMutability": "nonpayable",
      "type": "function"
    },
    {
      "constant": true,
      "inputs": [
        {
          "name": "",
          "type": "address"
        },
        {
          "name": "",
          "type": "uint256"
        }
      ],
      "name": "_receivedOffers",
      "outputs": [
        {
          "name": "buyer",
          "type": "address"
        },
        {
          "name": "shishaToken",
          "type": "uint256"
        },
        {
          "name": "price",
          "type": "uint256"
        }
      ],
      "payable": false,
      "stateMutability": "view",
      "type": "function"
    },
    {
      "constant": false,
      "inputs": [
        {
          "name": "from",
          "type": "address"
        },
        {
          "name": "to",
          "type": "address"
        },
        {
          "name": "tokenId",
          "type": "uint256"
        }
      ],
      "name": "transferFrom",
      "outputs": [],
      "payable": false,
      "stateMutability": "nonpayable",
      "type": "function"
    },
    {
      "constant": true,
      "inputs": [
        {
          "name": "",
          "type": "uint256"
        },
        {
          "name": "",
          "type": "uint256"
        }
      ],
      "name": "_tokenOffers",
      "outputs": [
        {
          "name": "buyer",
          "type": "address"
        },
        {
          "name": "shishaToken",
          "type": "uint256"
        },
        {
          "name": "price",
          "type": "uint256"
        }
      ],
      "payable": false,
      "stateMutability": "view",
      "type": "function"
    },
    {
      "constant": false,
      "inputs": [
        {
          "name": "from",
          "type": "address"
        },
        {
          "name": "to",
          "type": "address"
        },
        {
          "name": "tokenId",
          "type": "uint256"
        }
      ],
      "name": "safeTransferFrom",
      "outputs": [],
      "payable": false,
      "stateMutability": "nonpayable",
      "type": "function"
    },
    {
      "constant": true,
      "inputs": [],
      "name": "shishaCoinAddress",
      "outputs": [
        {
          "name": "",
          "type": "address"
        }
      ],
      "payable": false,
      "stateMutability": "view",
      "type": "function"
    },
    {
      "constant": true,
      "inputs": [
        {
          "name": "",
          "type": "uint256"
        }
      ],
      "name": "_ownerTokensIndexes",
      "outputs": [
        {
          "name": "",
          "type": "uint256"
        }
      ],
      "payable": false,
      "stateMutability": "view",
      "type": "function"
    },
    {
      "constant": true,
      "inputs": [
        {
          "name": "tokenId",
          "type": "uint256"
        }
      ],
      "name": "ownerOf",
      "outputs": [
        {
          "name": "",
          "type": "address"
        }
      ],
      "payable": false,
      "stateMutability": "view",
      "type": "function"
    },
    {
      "constant": true,
      "inputs": [
        {
          "name": "owner",
          "type": "address"
        }
      ],
      "name": "balanceOf",
      "outputs": [
        {
          "name": "",
          "type": "uint256"
        }
      ],
      "payable": false,
      "stateMutability": "view",
      "type": "function"
    },
    {
      "constant": true,
      "inputs": [],
      "name": "defaultVotePrice",
      "outputs": [
        {
          "name": "",
          "type": "uint256"
        }
      ],
      "payable": false,
      "stateMutability": "view",
      "type": "function"
    },
    {
      "constant": true,
      "inputs": [
        {
          "name": "",
          "type": "address"
        },
        {
          "name": "",
          "type": "uint256"
        }
      ],
      "name": "_ownerTokens",
      "outputs": [
        {
          "name": "",
          "type": "uint256"
        }
      ],
      "payable": false,
      "stateMutability": "view",
      "type": "function"
    },
    {
      "constant": false,
      "inputs": [
        {
          "name": "to",
          "type": "address"
        },
        {
          "name": "approved",
          "type": "bool"
        }
      ],
      "name": "setApprovalForAll",
      "outputs": [],
      "payable": false,
      "stateMutability": "nonpayable",
      "type": "function"
    },
    {
      "constant": true,
      "inputs": [
        {
          "name": "",
          "type": "address"
        },
        {
          "name": "",
          "type": "uint256"
        }
      ],
      "name": "_madeOffers",
      "outputs": [
        {
          "name": "buyer",
          "type": "address"
        },
        {
          "name": "shishaToken",
          "type": "uint256"
        },
        {
          "name": "price",
          "type": "uint256"
        }
      ],
      "payable": false,
      "stateMutability": "view",
      "type": "function"
    },
    {
      "constant": false,
      "inputs": [
        {
          "name": "from",
          "type": "address"
        },
        {
          "name": "to",
          "type": "address"
        },
        {
          "name": "tokenId",
          "type": "uint256"
        },
        {
          "name": "_data",
          "type": "bytes"
        }
      ],
      "name": "safeTransferFrom",
      "outputs": [],
      "payable": false,
      "stateMutability": "nonpayable",
      "type": "function"
    },
    {
      "constant": true,
      "inputs": [],
      "name": "defaultPrice",
      "outputs": [
        {
          "name": "",
          "type": "uint256"
        }
      ],
      "payable": false,
      "stateMutability": "view",
      "type": "function"
    },
    {
      "constant": true,
      "inputs": [
        {
          "name": "owner",
          "type": "address"
        },
        {
          "name": "operator",
          "type": "address"
        }
      ],
      "name": "isApprovedForAll",
      "outputs": [
        {
          "name": "",
          "type": "bool"
        }
      ],
      "payable": false,
      "stateMutability": "view",
      "type": "function"
    },
    {
      "inputs": [
        {
          "name": "_shishaCoinAddress",
          "type": "address"
        }
      ],
      "payable": false,
      "stateMutability": "nonpayable",
      "type": "constructor"
    },
    {
      "payable": true,
      "stateMutability": "payable",
      "type": "fallback"
    },
    {
      "anonymous": false,
      "inputs": [
        {
          "indexed": false,
          "name": "buyer",
          "type": "address"
        },
        {
          "indexed": false,
          "name": "shishaId",
          "type": "uint256"
        },
        {
          "indexed": false,
          "name": "price",
          "type": "uint256"
        }
      ],
      "name": "LogNewShisha",
      "type": "event"
    },
    {
      "anonymous": false,
      "inputs": [
        {
          "indexed": false,
          "name": "buyer",
          "type": "address"
        },
        {
          "indexed": false,
          "name": "shishaId",
          "type": "uint256"
        },
        {
          "indexed": false,
          "name": "price",
          "type": "uint256"
        }
      ],
      "name": "LogNewShishaPrice",
      "type": "event"
    },
    {
      "anonymous": false,
      "inputs": [
        {
          "indexed": false,
          "name": "buyer",
          "type": "address"
        },
        {
          "indexed": false,
          "name": "shishaId",
          "type": "uint256"
        },
        {
          "indexed": false,
          "name": "price",
          "type": "uint256"
        }
      ],
      "name": "LogNewOffer",
      "type": "event"
    },
    {
      "anonymous": false,
      "inputs": [
        {
          "indexed": false,
          "name": "buyer",
          "type": "address"
        },
        {
          "indexed": false,
          "name": "shishaId",
          "type": "uint256"
        }
      ],
      "name": "LogNewShishaVote",
      "type": "event"
    },
    {
      "anonymous": false,
      "inputs": [
        {
          "indexed": true,
          "name": "from",
          "type": "address"
        },
        {
          "indexed": true,
          "name": "to",
          "type": "address"
        },
        {
          "indexed": true,
          "name": "tokenId",
          "type": "uint256"
        }
      ],
      "name": "Transfer",
      "type": "event"
    },
    {
      "anonymous": false,
      "inputs": [
        {
          "indexed": true,
          "name": "owner",
          "type": "address"
        },
        {
          "indexed": true,
          "name": "approved",
          "type": "address"
        },
        {
          "indexed": true,
          "name": "tokenId",
          "type": "uint256"
        }
      ],
      "name": "Approval",
      "type": "event"
    },
    {
      "anonymous": false,
      "inputs": [
        {
          "indexed": true,
          "name": "owner",
          "type": "address"
        },
        {
          "indexed": true,
          "name": "operator",
          "type": "address"
        },
        {
          "indexed": false,
          "name": "approved",
          "type": "bool"
        }
      ],
      "name": "ApprovalForAll",
      "type": "event"
    },
    {
      "constant": true,
      "inputs": [
        {
          "name": "_owner",
          "type": "address"
        }
      ],
      "name": "getAllShishaTokens",
      "outputs": [
        {
          "name": "",
          "type": "uint256[]"
        }
      ],
      "payable": false,
      "stateMutability": "view",
      "type": "function"
    },
    {
      "constant": false,
      "inputs": [
        {
          "name": "_shishaId",
          "type": "uint256"
        }
      ],
      "name": "buyShisha",
      "outputs": [],
      "payable": false,
      "stateMutability": "nonpayable",
      "type": "function"
    },
    {
      "constant": false,
      "inputs": [
        {
          "name": "_to",
          "type": "address"
        },
        {
          "name": "_shishaId",
          "type": "uint256"
        },
        {
          "name": "_price",
          "type": "uint256"
        }
      ],
      "name": "setShishaApproval",
      "outputs": [],
      "payable": false,
      "stateMutability": "nonpayable",
      "type": "function"
    },
    {
      "constant": true,
      "inputs": [
        {
          "name": "_shishaId",
          "type": "uint256"
        }
      ],
      "name": "getShishaPrice",
      "outputs": [
        {
          "name": "",
          "type": "uint256"
        }
      ],
      "payable": false,
      "stateMutability": "view",
      "type": "function"
    },
    {
      "constant": false,
      "inputs": [
        {
          "name": "_shishaId",
          "type": "uint256"
        }
      ],
      "name": "transferShisha",
      "outputs": [],
      "payable": false,
      "stateMutability": "nonpayable",
      "type": "function"
    },
    {
      "constant": false,
      "inputs": [
        {
          "name": "_shishaId",
          "type": "uint256"
        },
        {
          "name": "_price",
          "type": "uint256"
        }
      ],
      "name": "makeOffer",
      "outputs": [],
      "payable": false,
      "stateMutability": "nonpayable",
      "type": "function"
    },
    {
      "constant": true,
      "inputs": [
        {
          "name": "_shishaId",
          "type": "uint256"
        }
      ],
      "name": "getOffers",
      "outputs": [
        {
          "components": [
            {
              "name": "buyer",
              "type": "address"
            },
            {
              "name": "shishaToken",
              "type": "uint256"
            },
            {
              "name": "price",
              "type": "uint256"
            }
          ],
          "name": "",
          "type": "tuple[]"
        }
      ],
      "payable": false,
      "stateMutability": "view",
      "type": "function"
    },
    {
      "constant": true,
      "inputs": [
        {
          "name": "_owner",
          "type": "address"
        }
      ],
      "name": "getMadeOffers",
      "outputs": [
        {
          "components": [
            {
              "name": "buyer",
              "type": "address"
            },
            {
              "name": "shishaToken",
              "type": "uint256"
            },
            {
              "name": "price",
              "type": "uint256"
            }
          ],
          "name": "",
          "type": "tuple[]"
        }
      ],
      "payable": false,
      "stateMutability": "view",
      "type": "function"
    },
    {
      "constant": true,
      "inputs": [
        {
          "name": "_owner",
          "type": "address"
        }
      ],
      "name": "getReceivedOffers",
      "outputs": [
        {
          "components": [
            {
              "name": "buyer",
              "type": "address"
            },
            {
              "name": "shishaToken",
              "type": "uint256"
            },
            {
              "name": "price",
              "type": "uint256"
            }
          ],
          "name": "",
          "type": "tuple[]"
        }
      ],
      "payable": false,
      "stateMutability": "view",
      "type": "function"
    },
    {
      "constant": false,
      "inputs": [
        {
          "name": "_shishaId",
          "type": "uint256"
        }
      ],
      "name": "voteShisha",
      "outputs": [],
      "payable": false,
      "stateMutability": "nonpayable",
      "type": "function"
    },
    {
      "constant": true,
      "inputs": [
        {
          "name": "_shishaId",
          "type": "uint256"
        }
      ],
      "name": "getShishaVotes",
      "outputs": [
        {
          "name": "",
          "type": "uint256"
        }
      ],
      "payable": false,
      "stateMutability": "view",
      "type": "function"
    }
  ],
  "bytecode": "0x608060405260146006556005600d553480156200001b57600080fd5b50604051602080620034cf83398101806040526200003d9190810190620001d3565b6200007a6301ffc9a77c010000000000000000000000000000000000000000000000000000000002620000ff640100000000026401000000009004565b620000b76380ac58cd7c010000000000000000000000000000000000000000000000000000000002620000ff640100000000026401000000009004565b80600560006101000a81548173ffffffffffffffffffffffffffffffffffffffff021916908373ffffffffffffffffffffffffffffffffffffffff160217905550506200021f565b63ffffffff7c010000000000000000000000000000000000000000000000000000000002817bffffffffffffffffffffffffffffffffffffffffffffffffffffffff1916141515156200015157600080fd5b6001600080837bffffffffffffffffffffffffffffffffffffffffffffffffffffffff19167bffffffffffffffffffffffffffffffffffffffffffffffffffffffff1916815260200190815260200160002060006101000a81548160ff02191690831515021790555050565b6000620001cb8251620001ff565b905092915050565b600060208284031215620001e657600080fd5b6000620001f684828501620001bd565b91505092915050565b600073ffffffffffffffffffffffffffffffffffffffff82169050919050565b6132a0806200022f6000396000f300608060405260043610610175576000357c0100000000000000000000000000000000000000000000000000000000900463ffffffff16806301ffc9a71461017757806305b7cdd3146101b4578063081812fc146101dd578063095ea7b31461021a5780630a59dc71146102435780630d80de911461028257806312b4b180146102ab57806323b872dd146102e8578063282eea4714610311578063420d9c641461033a57806342842e0e146103795780634ab8be04146103a2578063530a4234146103df5780635636a2981461040a5780636352211e1461044757806370a08231146104845780637b86bd5f146104c15780638233df36146104ec57806385f5c666146105295780638de5d8e214610566578063a22cb465146105a3578063b249a1e9146105cc578063b88d4fde1461060b578063dcb5d54814610634578063dfa49e6f14610671578063e69e04b3146106ae578063e985e9c5146106d9578063ea9bda5614610716578063ebe5efcd1461073f575b005b34801561018357600080fd5b5061019e60048036036101999190810190612a8b565b610768565b6040516101ab9190612f97565b60405180910390f35b3480156101c057600080fd5b506101db60048036036101d69190810190612b06565b6107cf565b005b3480156101e957600080fd5b5061020460048036036101ff9190810190612add565b610b32565b6040516102119190612e55565b60405180910390f35b34801561022657600080fd5b50610241600480360361023c91908101906129d7565b610b83565b005b34801561024f57600080fd5b5061026a600480360361026591908101906129d7565b610cc8565b60405161027993929190612f1c565b60405180910390f35b34801561028e57600080fd5b506102a960048036036102a49190810190612a13565b610d2e565b005b3480156102b757600080fd5b506102d260048036036102cd919081019061286c565b610e21565b6040516102df9190612f53565b60405180910390f35b3480156102f457600080fd5b5061030f600480360361030a91908101906128d1565b610f2a565b005b34801561031d57600080fd5b5061033860048036036103339190810190612add565b610ff9565b005b34801561034657600080fd5b50610361600480360361035c9190810190612b06565b611381565b60405161037093929190612f1c565b60405180910390f35b34801561038557600080fd5b506103a0600480360361039b91908101906128d1565b6113e7565b005b3480156103ae57600080fd5b506103c960048036036103c4919081019061286c565b611408565b6040516103d69190612f75565b60405180910390f35b3480156103eb57600080fd5b506103f461149f565b6040516104019190612e55565b60405180910390f35b34801561041657600080fd5b50610431600480360361042c9190810190612add565b6114c5565b60405161043e91906130b2565b60405180910390f35b34801561045357600080fd5b5061046e60048036036104699190810190612add565b6114dd565b60405161047b9190612e55565b60405180910390f35b34801561049057600080fd5b506104ab60048036036104a6919081019061286c565b61155b565b6040516104b891906130b2565b60405180910390f35b3480156104cd57600080fd5b506104d66115df565b6040516104e391906130b2565b60405180910390f35b3480156104f857600080fd5b50610513600480360361050e919081019061286c565b6115e5565b6040516105209190612f53565b60405180910390f35b34801561053557600080fd5b50610550600480360361054b9190810190612add565b6116ee565b60405161055d91906130b2565b60405180910390f35b34801561057257600080fd5b5061058d600480360361058891908101906129d7565b611757565b60405161059a91906130b2565b60405180910390f35b3480156105af57600080fd5b506105ca60048036036105c5919081019061299b565b611787565b005b3480156105d857600080fd5b506105f360048036036105ee91908101906129d7565b6118bf565b60405161060293929190612f1c565b60405180910390f35b34801561061757600080fd5b50610632600480360361062d9190810190612920565b611925565b005b34801561064057600080fd5b5061065b60048036036106569190810190612add565b61194d565b60405161066891906130b2565b60405180910390f35b34801561067d57600080fd5b5061069860048036036106939190810190612add565b61196a565b6040516106a59190612f53565b60405180910390f35b3480156106ba57600080fd5b506106c3611a47565b6040516106d091906130b2565b60405180910390f35b3480156106e557600080fd5b5061070060048036036106fb9190810190612895565b611a4d565b60405161070d9190612f97565b60405180910390f35b34801561072257600080fd5b5061073d60048036036107389190810190612add565b611ae1565b005b34801561074b57600080fd5b5061076660048036036107619190810190612add565b611d7a565b005b6000806000837bffffffffffffffffffffffffffffffffffffffffffffffffffffffff19167bffffffffffffffffffffffffffffffffffffffffffffffffffffffff1916815260200190815260200160002060009054906101000a900460ff169050919050565b6107d76126ec565b826107e18161200e565b1515610822576040517f08c379a000000000000000000000000000000000000000000000000000000000815260040161081990613092565b60405180910390fd5b600061082d856114dd565b73ffffffffffffffffffffffffffffffffffffffff1614151515610886576040517f08c379a000000000000000000000000000000000000000000000000000000000815260040161087d90613032565b60405180910390fd5b6060604051908101604052803373ffffffffffffffffffffffffffffffffffffffff16815260200185815260200184815250915060096000858152602001908152602001600020829080600181540180825580915050906001820390600052602060002090600302016000909192909190915060008201518160000160006101000a81548173ffffffffffffffffffffffffffffffffffffffff021916908373ffffffffffffffffffffffffffffffffffffffff1602179055506020820151816001015560408201518160020155505050600a60003373ffffffffffffffffffffffffffffffffffffffff1673ffffffffffffffffffffffffffffffffffffffff168152602001908152602001600020829080600181540180825580915050906001820390600052602060002090600302016000909192909190915060008201518160000160006101000a81548173ffffffffffffffffffffffffffffffffffffffff021916908373ffffffffffffffffffffffffffffffffffffffff1602179055506020820151816001015560408201518160020155505050600b6000610a2d866114dd565b73ffffffffffffffffffffffffffffffffffffffff1673ffffffffffffffffffffffffffffffffffffffff168152602001908152602001600020829080600181540180825580915050906001820390600052602060002090600302016000909192909190915060008201518160000160006101000a81548173ffffffffffffffffffffffffffffffffffffffff021916908373ffffffffffffffffffffffffffffffffffffffff16021790555060208201518160010155604082015181600201555050507fe1fc43eab84d9c6975072f2e5f6b3ae93c87a4d281626bd94ee5135fc82288ed338585604051610b2493929190612f1c565b60405180910390a150505050565b6000610b3d8261200e565b1515610b4857600080fd5b6002600083815260200190815260200160002060009054906101000a900473ffffffffffffffffffffffffffffffffffffffff169050919050565b6000610b8e826114dd565b90508073ffffffffffffffffffffffffffffffffffffffff168373ffffffffffffffffffffffffffffffffffffffff1614151515610bcb57600080fd5b8073ffffffffffffffffffffffffffffffffffffffff163373ffffffffffffffffffffffffffffffffffffffff161480610c0b5750610c0a8133611a4d565b5b1515610c1657600080fd5b826002600084815260200190815260200160002060006101000a81548173ffffffffffffffffffffffffffffffffffffffff021916908373ffffffffffffffffffffffffffffffffffffffff160217905550818373ffffffffffffffffffffffffffffffffffffffff168273ffffffffffffffffffffffffffffffffffffffff167f8c5be1e5ebec7d5bd14f71427d1e84f3dd0314c0f7b2291e5b200ac8c7c3b92560405160405180910390a4505050565b600b60205281600052604060002081815481101515610ce357fe5b9060005260206000209060030201600091509150508060000160009054906101000a900473ffffffffffffffffffffffffffffffffffffffff16908060010154908060020154905083565b81610d388161200e565b1515610d79576040517f08c379a0000000000000000000000000000000000000000000000000000000008152600401610d7090613092565b60405180910390fd5b600082111515610dbe576040517f08c379a0000000000000000000000000000000000000000000000000000000008152600401610db590612ff2565b60405180910390fd5b610dc88484610b83565b81600c6000858152602001908152602001600020819055507fef752cf14c8ea67ccab38b2a96c6c64526ef38c0e16fb940b2ad0a59aca1efa7338484604051610e1393929190612f1c565b60405180910390a150505050565b6060600b60008373ffffffffffffffffffffffffffffffffffffffff1673ffffffffffffffffffffffffffffffffffffffff168152602001908152602001600020805480602002602001604051908101604052809291908181526020016000905b82821015610f1f5783829060005260206000209060030201606060405190810160405290816000820160009054906101000a900473ffffffffffffffffffffffffffffffffffffffff1673ffffffffffffffffffffffffffffffffffffffff1673ffffffffffffffffffffffffffffffffffffffff1681526020016001820154815260200160028201548152505081526020019060010190610e82565b505050509050919050565b610f343382612080565b1515610f3f57600080fd5b600073ffffffffffffffffffffffffffffffffffffffff168273ffffffffffffffffffffffffffffffffffffffff1614151515610f7b57600080fd5b610f858382612115565b610f8f8382612218565b610f998282612347565b808273ffffffffffffffffffffffffffffffffffffffff168473ffffffffffffffffffffffffffffffffffffffff167fddf252ad1be2c89b69c2b068fc378daa952ba7f163c4a11628f55a4df523b3ef60405160405180910390a4505050565b6000816110058161200e565b1515611046576040517f08c379a000000000000000000000000000000000000000000000000000000000815260040161103d90613092565b60405180910390fd5b3373ffffffffffffffffffffffffffffffffffffffff1661106684610b32565b73ffffffffffffffffffffffffffffffffffffffff161415156110be576040517f08c379a00000000000000000000000000000000000000000000000000000000081526004016110b590613012565b60405180910390fd5b600560009054906101000a900473ffffffffffffffffffffffffffffffffffffffff1673ffffffffffffffffffffffffffffffffffffffff16636563e65533611106866114dd565b600c6000888152602001908152602001600020546040518463ffffffff167c010000000000000000000000000000000000000000000000000000000002815260040161115493929190612e70565b602060405180830381600087803b15801561116e57600080fd5b505af1158015611182573d6000803e3d6000fd5b505050506040513d601f19601f820116820180604052506111a69190810190612a62565b15156111e7576040517f08c379a00000000000000000000000000000000000000000000000000000000081526004016111de90613052565b60405180910390fd5b6001600760003373ffffffffffffffffffffffffffffffffffffffff1673ffffffffffffffffffffffffffffffffffffffff1681526020019081526020016000208490806001815401808255809150509060018203906000526020600020016000909192909190915055039150600060076000611263866114dd565b73ffffffffffffffffffffffffffffffffffffffff1673ffffffffffffffffffffffffffffffffffffffff16815260200190815260200160002060086000868152602001908152602001600020548154811015156112bd57fe5b90600052602060002001819055508160086000858152602001908152602001600020819055506112f66112ef846114dd565b3385610f2a565b6009600084815260200190815260200160002060006113159190612724565b7f40d1806cbe5eb9d05cfb2c454f49a55795e1c29e911622652780d511594155a83384600c60008781526020019081526020016000205460405161135b93929190612f1c565b60405180910390a16000600c600085815260200190815260200160002081905550505050565b60096020528160005260406000208181548110151561139c57fe5b9060005260206000209060030201600091509150508060000160009054906101000a900473ffffffffffffffffffffffffffffffffffffffff16908060010154908060020154905083565b6114038383836020604051908101604052806000815250611925565b505050565b6060600760008373ffffffffffffffffffffffffffffffffffffffff1673ffffffffffffffffffffffffffffffffffffffff16815260200190815260200160002080548060200260200160405190810160405280929190818152602001828054801561149357602002820191906000526020600020905b81548152602001906001019080831161147f575b50505050509050919050565b600560009054906101000a900473ffffffffffffffffffffffffffffffffffffffff1681565b60086020528060005260406000206000915090505481565b6000806001600084815260200190815260200160002060009054906101000a900473ffffffffffffffffffffffffffffffffffffffff169050600073ffffffffffffffffffffffffffffffffffffffff168173ffffffffffffffffffffffffffffffffffffffff161415151561155257600080fd5b80915050919050565b60008073ffffffffffffffffffffffffffffffffffffffff168273ffffffffffffffffffffffffffffffffffffffff161415151561159857600080fd5b600360008373ffffffffffffffffffffffffffffffffffffffff1673ffffffffffffffffffffffffffffffffffffffff168152602001908152602001600020549050919050565b600d5481565b6060600a60008373ffffffffffffffffffffffffffffffffffffffff1673ffffffffffffffffffffffffffffffffffffffff168152602001908152602001600020805480602002602001604051908101604052809291908181526020016000905b828210156116e35783829060005260206000209060030201606060405190810160405290816000820160009054906101000a900473ffffffffffffffffffffffffffffffffffffffff1673ffffffffffffffffffffffffffffffffffffffff1673ffffffffffffffffffffffffffffffffffffffff1681526020016001820154815260200160028201548152505081526020019060010190611646565b505050509050919050565b6000816116fa8161200e565b151561173b576040517f08c379a000000000000000000000000000000000000000000000000000000000815260040161173290613092565b60405180910390fd5b600c600084815260200190815260200160002054915050919050565b60076020528160005260406000208181548110151561177257fe5b90600052602060002001600091509150505481565b3373ffffffffffffffffffffffffffffffffffffffff168273ffffffffffffffffffffffffffffffffffffffff16141515156117c257600080fd5b80600460003373ffffffffffffffffffffffffffffffffffffffff1673ffffffffffffffffffffffffffffffffffffffff16815260200190815260200160002060008473ffffffffffffffffffffffffffffffffffffffff1673ffffffffffffffffffffffffffffffffffffffff16815260200190815260200160002060006101000a81548160ff0219169083151502179055508173ffffffffffffffffffffffffffffffffffffffff163373ffffffffffffffffffffffffffffffffffffffff167f17307eab39ab6107e8899845ad3d59bd9653f200f220920489ca2b5937696c31836040516118b39190612f97565b60405180910390a35050565b600a602052816000526040600020818154811015156118da57fe5b9060005260206000209060030201600091509150508060000160009054906101000a900473ffffffffffffffffffffffffffffffffffffffff16908060010154908060020154905083565b611930848484610f2a565b61193c848484846124a1565b151561194757600080fd5b50505050565b6000600f6000838152602001908152602001600020549050919050565b606060096000838152602001908152602001600020805480602002602001604051908101604052809291908181526020016000905b82821015611a3c5783829060005260206000209060030201606060405190810160405290816000820160009054906101000a900473ffffffffffffffffffffffffffffffffffffffff1673ffffffffffffffffffffffffffffffffffffffff1673ffffffffffffffffffffffffffffffffffffffff168152602001600182015481526020016002820154815250508152602001906001019061199f565b505050509050919050565b60065481565b6000600460008473ffffffffffffffffffffffffffffffffffffffff1673ffffffffffffffffffffffffffffffffffffffff16815260200190815260200160002060008373ffffffffffffffffffffffffffffffffffffffff1673ffffffffffffffffffffffffffffffffffffffff16815260200190815260200160002060009054906101000a900460ff16905092915050565b60001515600e600083815260200190815260200160002060003373ffffffffffffffffffffffffffffffffffffffff1673ffffffffffffffffffffffffffffffffffffffff16815260200190815260200160002060009054906101000a900460ff161515141515611b87576040517f08c379a0000000000000000000000000000000000000000000000000000000008152600401611b7e90612fd2565b60405180910390fd5b600560009054906101000a900473ffffffffffffffffffffffffffffffffffffffff1673ffffffffffffffffffffffffffffffffffffffff16636563e6553033600d546040518463ffffffff167c0100000000000000000000000000000000000000000000000000000000028152600401611c0493929190612e70565b602060405180830381600087803b158015611c1e57600080fd5b505af1158015611c32573d6000803e3d6000fd5b505050506040513d601f19601f82011682018060405250611c569190810190612a62565b1515611c97576040517f08c379a0000000000000000000000000000000000000000000000000000000008152600401611c8e90613052565b60405180910390fd5b6001600e600083815260200190815260200160002060003373ffffffffffffffffffffffffffffffffffffffff1673ffffffffffffffffffffffffffffffffffffffff16815260200190815260200160002060006101000a81548160ff021916908315150217905550611d276001600f6000848152602001908152602001600020546125f190919063ffffffff16565b600f6000838152602001908152602001600020819055507f49edc538564c34666766137c237f3f752eab09b03904f11af46a64516263ea323382604051611d6f929190612ef3565b60405180910390a150565b6000808214151515611dc1576040517f08c379a0000000000000000000000000000000000000000000000000000000008152600401611db890613072565b60405180910390fd5b611dca8261200e565b151515611e0c576040517f08c379a0000000000000000000000000000000000000000000000000000000008152600401611e0390612fb2565b60405180910390fd5b600560009054906101000a900473ffffffffffffffffffffffffffffffffffffffff1673ffffffffffffffffffffffffffffffffffffffff16636563e65533600560009054906101000a900473ffffffffffffffffffffffffffffffffffffffff166006546040518463ffffffff167c0100000000000000000000000000000000000000000000000000000000028152600401611eab93929190612e70565b602060405180830381600087803b158015611ec557600080fd5b505af1158015611ed9573d6000803e3d6000fd5b505050506040513d601f19601f82011682018060405250611efd9190810190612a62565b1515611f3e576040517f08c379a0000000000000000000000000000000000000000000000000000000008152600401611f3590613052565b60405180910390fd5b611f483383612612565b6001600760003373ffffffffffffffffffffffffffffffffffffffff1673ffffffffffffffffffffffffffffffffffffffff16815260200190815260200160002083908060018154018082558091505090600182039060005260206000200160009091929091909150550390508060086000848152602001908152602001600020819055507f40d1806cbe5eb9d05cfb2c454f49a55795e1c29e911622652780d511594155a8338360065460405161200293929190612f1c565b60405180910390a15050565b6000806001600084815260200190815260200160002060009054906101000a900473ffffffffffffffffffffffffffffffffffffffff169050600073ffffffffffffffffffffffffffffffffffffffff168173ffffffffffffffffffffffffffffffffffffffff161415915050919050565b60008061208c836114dd565b90508073ffffffffffffffffffffffffffffffffffffffff168473ffffffffffffffffffffffffffffffffffffffff1614806120fb57508373ffffffffffffffffffffffffffffffffffffffff166120e384610b32565b73ffffffffffffffffffffffffffffffffffffffff16145b8061210c575061210b8185611a4d565b5b91505092915050565b8173ffffffffffffffffffffffffffffffffffffffff16612135826114dd565b73ffffffffffffffffffffffffffffffffffffffff1614151561215757600080fd5b600073ffffffffffffffffffffffffffffffffffffffff166002600083815260200190815260200160002060009054906101000a900473ffffffffffffffffffffffffffffffffffffffff1673ffffffffffffffffffffffffffffffffffffffff161415156122145760006002600083815260200190815260200160002060006101000a81548173ffffffffffffffffffffffffffffffffffffffff021916908373ffffffffffffffffffffffffffffffffffffffff1602179055505b5050565b8173ffffffffffffffffffffffffffffffffffffffff16612238826114dd565b73ffffffffffffffffffffffffffffffffffffffff1614151561225a57600080fd5b6122ad6001600360008573ffffffffffffffffffffffffffffffffffffffff1673ffffffffffffffffffffffffffffffffffffffff168152602001908152602001600020546126b890919063ffffffff16565b600360008473ffffffffffffffffffffffffffffffffffffffff1673ffffffffffffffffffffffffffffffffffffffff1681526020019081526020016000208190555060006001600083815260200190815260200160002060006101000a81548173ffffffffffffffffffffffffffffffffffffffff021916908373ffffffffffffffffffffffffffffffffffffffff1602179055505050565b600073ffffffffffffffffffffffffffffffffffffffff166001600083815260200190815260200160002060009054906101000a900473ffffffffffffffffffffffffffffffffffffffff1673ffffffffffffffffffffffffffffffffffffffff161415156123b557600080fd5b816001600083815260200190815260200160002060006101000a81548173ffffffffffffffffffffffffffffffffffffffff021916908373ffffffffffffffffffffffffffffffffffffffff16021790555061245a6001600360008573ffffffffffffffffffffffffffffffffffffffff1673ffffffffffffffffffffffffffffffffffffffff168152602001908152602001600020546125f190919063ffffffff16565b600360008473ffffffffffffffffffffffffffffffffffffffff1673ffffffffffffffffffffffffffffffffffffffff168152602001908152602001600020819055505050565b6000806124c38573ffffffffffffffffffffffffffffffffffffffff166126d9565b15156124d257600191506125e8565b8473ffffffffffffffffffffffffffffffffffffffff1663150b7a02338887876040518563ffffffff167c010000000000000000000000000000000000000000000000000000000002815260040161252d9493929190612ea7565b602060405180830381600087803b15801561254757600080fd5b505af115801561255b573d6000803e3d6000fd5b505050506040513d601f19601f8201168201806040525061257f9190810190612ab4565b905063150b7a027c0100000000000000000000000000000000000000000000000000000000027bffffffffffffffffffffffffffffffffffffffffffffffffffffffff1916817bffffffffffffffffffffffffffffffffffffffffffffffffffffffff19161491505b50949350505050565b600080828401905083811015151561260857600080fd5b8091505092915050565b600073ffffffffffffffffffffffffffffffffffffffff168273ffffffffffffffffffffffffffffffffffffffff161415151561264e57600080fd5b6126588282612347565b808273ffffffffffffffffffffffffffffffffffffffff16600073ffffffffffffffffffffffffffffffffffffffff167fddf252ad1be2c89b69c2b068fc378daa952ba7f163c4a11628f55a4df523b3ef60405160405180910390a45050565b6000808383111515156126ca57600080fd5b82840390508091505092915050565b600080823b905060008111915050919050565b606060405190810160405280600073ffffffffffffffffffffffffffffffffffffffff16815260200160008152602001600081525090565b50805460008255600302906000526020600020908101906127459190612748565b50565b61279b91905b8082111561279757600080820160006101000a81549073ffffffffffffffffffffffffffffffffffffffff0219169055600182016000905560028201600090555060030161274e565b5090565b90565b60006127aa82356131b1565b905092915050565b60006127be82356131d1565b905092915050565b60006127d282516131d1565b905092915050565b60006127e682356131dd565b905092915050565b60006127fa82516131dd565b905092915050565b600082601f830112151561281557600080fd5b8135612828612823826130fa565b6130cd565b9150808252602083016020830185838301111561284457600080fd5b61284f838284613213565b50505092915050565b60006128648235613209565b905092915050565b60006020828403121561287e57600080fd5b600061288c8482850161279e565b91505092915050565b600080604083850312156128a857600080fd5b60006128b68582860161279e565b92505060206128c78582860161279e565b9150509250929050565b6000806000606084860312156128e657600080fd5b60006128f48682870161279e565b93505060206129058682870161279e565b925050604061291686828701612858565b9150509250925092565b6000806000806080858703121561293657600080fd5b60006129448782880161279e565b94505060206129558782880161279e565b935050604061296687828801612858565b925050606085013567ffffffffffffffff81111561298357600080fd5b61298f87828801612802565b91505092959194509250565b600080604083850312156129ae57600080fd5b60006129bc8582860161279e565b92505060206129cd858286016127b2565b9150509250929050565b600080604083850312156129ea57600080fd5b60006129f88582860161279e565b9250506020612a0985828601612858565b9150509250929050565b600080600060608486031215612a2857600080fd5b6000612a368682870161279e565b9350506020612a4786828701612858565b9250506040612a5886828701612858565b9150509250925092565b600060208284031215612a7457600080fd5b6000612a82848285016127c6565b91505092915050565b600060208284031215612a9d57600080fd5b6000612aab848285016127da565b91505092915050565b600060208284031215612ac657600080fd5b6000612ad4848285016127ee565b91505092915050565b600060208284031215612aef57600080fd5b6000612afd84828501612858565b91505092915050565b60008060408385031215612b1957600080fd5b6000612b2785828601612858565b9250506020612b3885828601612858565b9150509250929050565b612b4b8161317b565b82525050565b6000612b5c82613140565b808452602084019350612b6e83613126565b60005b82811015612ba057612b84868351612e04565b612b8d82613161565b9150606086019550600181019050612b71565b50849250505092915050565b6000612bb78261314b565b808452602084019350612bc983613133565b60005b82811015612bfb57612bdf868351612e46565b612be88261316e565b9150602086019550600181019050612bcc565b50849250505092915050565b612c108161319b565b82525050565b6000612c2182613156565b808452612c35816020860160208601613222565b612c3e81613255565b602085010191505092915050565b6000601482527f53686973686120616c72656164792074616b656e0000000000000000000000006020830152604082019050919050565b6000600d82527f416c726561647920766f746564000000000000000000000000000000000000006020830152604082019050919050565b6000601882527f50726963652073686f756c6420626520706f73697469766500000000000000006020830152604082019050919050565b6000601d82527f4e6f7420616c6c6f77656420746f20627579207468697320746f6b656e0000006020830152604082019050919050565b6000601b82527f536869736861206e6f742062656c6f6e6720746f20616e796f6e6500000000006020830152604082019050919050565b6000601882527f4e6f7420656e6f7567682073686973686120746f6b656e7300000000000000006020830152604082019050919050565b6000601482527f496e76616c69642053686973686120746f6b656e0000000000000000000000006020830152604082019050919050565b6000601682527f53686973686120746f6b656e206e6f74206578697374000000000000000000006020830152604082019050919050565b606082016000820151612e1a6000850182612b42565b506020820151612e2d6020850182612e46565b506040820151612e406040850182612e46565b50505050565b612e4f816131a7565b82525050565b6000602082019050612e6a6000830184612b42565b92915050565b6000606082019050612e856000830186612b42565b612e926020830185612b42565b612e9f6040830184612e46565b949350505050565b6000608082019050612ebc6000830187612b42565b612ec96020830186612b42565b612ed66040830185612e46565b8181036060830152612ee88184612c16565b905095945050505050565b6000604082019050612f086000830185612b42565b612f156020830184612e46565b9392505050565b6000606082019050612f316000830186612b42565b612f3e6020830185612e46565b612f4b6040830184612e46565b949350505050565b60006020820190508181036000830152612f6d8184612b51565b905092915050565b60006020820190508181036000830152612f8f8184612bac565b905092915050565b6000602082019050612fac6000830184612c07565b92915050565b60006020820190508181036000830152612fcb81612c4c565b9050919050565b60006020820190508181036000830152612feb81612c83565b9050919050565b6000602082019050818103600083015261300b81612cba565b9050919050565b6000602082019050818103600083015261302b81612cf1565b9050919050565b6000602082019050818103600083015261304b81612d28565b9050919050565b6000602082019050818103600083015261306b81612d5f565b9050919050565b6000602082019050818103600083015261308b81612d96565b9050919050565b600060208201905081810360008301526130ab81612dcd565b9050919050565b60006020820190506130c76000830184612e46565b92915050565b6000604051905081810181811067ffffffffffffffff821117156130f057600080fd5b8060405250919050565b600067ffffffffffffffff82111561311157600080fd5b601f19601f8301169050602081019050919050565b6000602082019050919050565b6000602082019050919050565b600081519050919050565b600081519050919050565b600081519050919050565b6000602082019050919050565b6000602082019050919050565b600073ffffffffffffffffffffffffffffffffffffffff82169050919050565b60008115159050919050565b6000819050919050565b600073ffffffffffffffffffffffffffffffffffffffff82169050919050565b60008115159050919050565b60007fffffffff0000000000000000000000000000000000000000000000000000000082169050919050565b6000819050919050565b82818337600083830152505050565b60005b83811015613240578082015181840152602081019050613225565b8381111561324f576000848401525b50505050565b6000601f19601f83011690509190505600a265627a7a7230582005123039ffcde1302cccd117743118ef5976478a905eb5e7d8dce5ed20ab1dda6c6578706572696d656e74616cf50037",
  "source": "pragma solidity ^0.4.25;\r\npragma experimental ABIEncoderV2;\r\n\r\nimport \"../node_modules/openzeppelin-solidity/contracts/token/ERC721/ERC721.sol\";\r\nimport \"./ShishaCoin.sol\";\r\n\r\ncontract ShishaToken is ERC721 {\r\n    \r\n    address public shishaCoinAddress;\r\n    uint256 public defaultPrice = 20;\r\n    \r\n    mapping(address => uint256[]) public _ownerTokens;\r\n    mapping(uint256 => uint256) public _ownerTokensIndexes;\r\n\r\n    struct TokenOffer {\r\n        address buyer;\r\n        uint256 shishaToken;\r\n        uint256 price;\r\n    }\r\n    mapping(uint256 => TokenOffer[]) public _tokenOffers;\r\n\r\n    mapping(address => TokenOffer[]) public _madeOffers;\r\n    mapping(address => TokenOffer[]) public _receivedOffers;\r\n\r\n    mapping(uint256 => uint256) private _tokenApprovalPrice;\r\n\r\n    event LogNewShisha(address buyer, uint256 shishaId, uint256 price);\r\n    event LogNewShishaPrice(address buyer, uint256 shishaId, uint256 price);\r\n    event LogNewOffer(address buyer, uint256 shishaId, uint256 price);\r\n\r\n    constructor(address _shishaCoinAddress) public {\r\n        shishaCoinAddress = _shishaCoinAddress;\r\n    }\r\n\r\n    modifier tokenExist(uint256 _shishaId) {\r\n        require(_exists(_shishaId), \"Shisha token not exist\");\r\n        _;\r\n    }\r\n\r\n    function getAllShishaTokens(address _owner) public view returns (uint256[]) {\r\n        return _ownerTokens[_owner];\r\n    }\r\n\r\n    function buyShisha(uint _shishaId) public {\r\n        require(_shishaId != 0, \"Invalid Shisha token\");\r\n        require(!_exists(_shishaId), \"Shisha already taken\");\r\n        require(ShishaCoin(shishaCoinAddress).transferCoins(msg.sender, shishaCoinAddress, defaultPrice), \"Not enough shisha tokens\");\r\n\r\n        _mint(msg.sender, _shishaId);\r\n        uint256 index = _ownerTokens[msg.sender].push(_shishaId) - 1;\r\n        _ownerTokensIndexes[_shishaId] = index;\r\n\r\n        emit LogNewShisha(msg.sender, _shishaId, defaultPrice);\r\n    }\r\n\r\n    function setShishaApproval(address _to, uint256 _shishaId, uint256 _price) public tokenExist(_shishaId) {\r\n        require(_price > 0, \"Price should be positive\");\r\n\r\n        approve(_to, _shishaId);\r\n        _tokenApprovalPrice[_shishaId] = _price;\r\n\r\n        emit LogNewShishaPrice(msg.sender, _shishaId, _price);\r\n    }\r\n\r\n    function getShishaPrice(uint256 _shishaId) public view tokenExist(_shishaId) returns (uint256) {\r\n        return _tokenApprovalPrice[_shishaId];\r\n    }\r\n\r\n    function transferShisha(uint256 _shishaId) public tokenExist(_shishaId) {\r\n        require(getApproved(_shishaId) == msg.sender, \"Not allowed to buy this token\");\r\n        require(ShishaCoin(shishaCoinAddress).transferCoins(msg.sender, ownerOf(_shishaId), _tokenApprovalPrice[_shishaId]), \"Not enough shisha tokens\");\r\n\r\n        uint256 newIndex = _ownerTokens[msg.sender].push(_shishaId) - 1;\r\n        _ownerTokens[ownerOf(_shishaId)][_ownerTokensIndexes[_shishaId]] = 0;\r\n        _ownerTokensIndexes[_shishaId] = newIndex;\r\n        \r\n        transferFrom(ownerOf(_shishaId), msg.sender, _shishaId);\r\n\r\n        delete _tokenOffers[_shishaId];\r\n\r\n        emit LogNewShisha(msg.sender, _shishaId, _tokenApprovalPrice[_shishaId]);\r\n        _tokenApprovalPrice[_shishaId] = 0;\r\n    }\r\n    \r\n\r\n    function makeOffer(uint256 _shishaId, uint _price) public tokenExist(_shishaId) {\r\n        require(ownerOf(_shishaId) != 0, \"Shisha not belong to anyone\");\r\n\r\n        TokenOffer memory newOffer = TokenOffer(msg.sender, _shishaId, _price);\r\n        _tokenOffers[_shishaId].push(newOffer);\r\n        _madeOffers[msg.sender].push(newOffer);\r\n        _receivedOffers[ownerOf(_shishaId)].push(newOffer);\r\n\r\n        emit LogNewOffer(msg.sender, _shishaId, _price);\r\n    }\r\n\r\n    function getOffers(uint256 _shishaId) public view returns (TokenOffer[]) {\r\n        return _tokenOffers[_shishaId];\r\n    }\r\n\r\n    function getMadeOffers(address _owner) public view returns (TokenOffer[]) {\r\n        return _madeOffers[_owner];\r\n    }\r\n\r\n    function getReceivedOffers(address _owner) public view returns (TokenOffer[]) {\r\n        return _receivedOffers[_owner];\r\n    }\r\n\r\n\r\n    /////////////\r\n    /// extrat to other contract. Here for simplicity only\r\n    uint256 public defaultVotePrice = 5;\r\n    mapping(uint256 => mapping(address => bool)) _shishaVotes;\r\n    mapping(uint256 => uint256) _shishaVotesCount;\r\n\r\n    event LogNewShishaVote(address buyer, uint256 shishaId);\r\n\r\n    function voteShisha(uint256 _shishaId) public {\r\n        require(_shishaVotes[_shishaId][msg.sender] == false, \"Already voted\");\r\n        require(ShishaCoin(shishaCoinAddress).transferCoins(address(this), msg.sender, defaultVotePrice), \"Not enough shisha tokens\");\r\n\r\n        _shishaVotes[_shishaId][msg.sender] = true;\r\n        _shishaVotesCount[_shishaId] = _shishaVotesCount[_shishaId].add(1);\r\n\r\n        emit LogNewShishaVote(msg.sender, _shishaId);\r\n    }\r\n\r\n    function getShishaVotes(uint256 _shishaId) public view returns (uint256) {\r\n        return _shishaVotesCount[_shishaId];\r\n    }\r\n\r\n\r\n    function() public payable { }\r\n}",
  "sourcePath": "C:\\work\\LimeAcademy\\project\\contracts\\ShishaToken.sol",
  "compiler": {
    "name": "solc",
    "version": "0.4.25+commit.59dbf8f1.Emscripten.clang"
  },
  "schemaVersion": "0.9.16",
  "updatedAt": "2018-11-30T14:17:56.593Z"
}