{
  "contractName": "ShishaCrowdsale",
  "abi": [
    {
      "constant": true,
      "inputs": [],
      "name": "startDate",
      "outputs": [
        {
          "name": "",
          "type": "uint256"
        }
      ],
      "payable": false,
      "stateMutability": "view",
      "type": "function"
    },
    {
      "constant": true,
      "inputs": [],
      "name": "MIN_CONTRIBUTION_AMOUNT",
      "outputs": [
        {
          "name": "",
          "type": "uint256"
        }
      ],
      "payable": false,
      "stateMutability": "view",
      "type": "function"
    },
    {
      "constant": true,
      "inputs": [],
      "name": "hasClosed",
      "outputs": [
        {
          "name": "",
          "type": "bool"
        }
      ],
      "payable": false,
      "stateMutability": "view",
      "type": "function"
    },
    {
      "constant": true,
      "inputs": [],
      "name": "rate",
      "outputs": [
        {
          "name": "",
          "type": "uint256"
        }
      ],
      "payable": false,
      "stateMutability": "view",
      "type": "function"
    },
    {
      "constant": true,
      "inputs": [],
      "name": "cap",
      "outputs": [
        {
          "name": "",
          "type": "uint256"
        }
      ],
      "payable": false,
      "stateMutability": "view",
      "type": "function"
    },
    {
      "constant": true,
      "inputs": [],
      "name": "goal",
      "outputs": [
        {
          "name": "",
          "type": "uint256"
        }
      ],
      "payable": false,
      "stateMutability": "view",
      "type": "function"
    },
    {
      "constant": true,
      "inputs": [],
      "name": "weiRaised",
      "outputs": [
        {
          "name": "",
          "type": "uint256"
        }
      ],
      "payable": false,
      "stateMutability": "view",
      "type": "function"
    },
    {
      "constant": true,
      "inputs": [],
      "name": "isOpen",
      "outputs": [
        {
          "name": "",
          "type": "bool"
        }
      ],
      "payable": false,
      "stateMutability": "view",
      "type": "function"
    },
    {
      "constant": true,
      "inputs": [],
      "name": "closingTime",
      "outputs": [
        {
          "name": "",
          "type": "uint256"
        }
      ],
      "payable": false,
      "stateMutability": "view",
      "type": "function"
    },
    {
      "constant": false,
      "inputs": [],
      "name": "finalize",
      "outputs": [],
      "payable": false,
      "stateMutability": "nonpayable",
      "type": "function"
    },
    {
      "constant": true,
      "inputs": [],
      "name": "capReached",
      "outputs": [
        {
          "name": "",
          "type": "bool"
        }
      ],
      "payable": false,
      "stateMutability": "view",
      "type": "function"
    },
    {
      "constant": true,
      "inputs": [],
      "name": "wallet",
      "outputs": [
        {
          "name": "",
          "type": "address"
        }
      ],
      "payable": false,
      "stateMutability": "view",
      "type": "function"
    },
    {
      "constant": true,
      "inputs": [],
      "name": "goalReached",
      "outputs": [
        {
          "name": "",
          "type": "bool"
        }
      ],
      "payable": false,
      "stateMutability": "view",
      "type": "function"
    },
    {
      "constant": true,
      "inputs": [],
      "name": "PUBLIC_SALES_2_PERIOD_END",
      "outputs": [
        {
          "name": "",
          "type": "uint256"
        }
      ],
      "payable": false,
      "stateMutability": "view",
      "type": "function"
    },
    {
      "constant": true,
      "inputs": [],
      "name": "PUBLIC_SALES_1_RATE",
      "outputs": [
        {
          "name": "",
          "type": "uint256"
        }
      ],
      "payable": false,
      "stateMutability": "view",
      "type": "function"
    },
    {
      "constant": true,
      "inputs": [],
      "name": "REGULAR_RATE",
      "outputs": [
        {
          "name": "",
          "type": "uint256"
        }
      ],
      "payable": false,
      "stateMutability": "view",
      "type": "function"
    },
    {
      "constant": true,
      "inputs": [],
      "name": "PUBLIC_SALES_1_PERIOD_END",
      "outputs": [
        {
          "name": "",
          "type": "uint256"
        }
      ],
      "payable": false,
      "stateMutability": "view",
      "type": "function"
    },
    {
      "constant": true,
      "inputs": [],
      "name": "finalized",
      "outputs": [
        {
          "name": "",
          "type": "bool"
        }
      ],
      "payable": false,
      "stateMutability": "view",
      "type": "function"
    },
    {
      "constant": true,
      "inputs": [],
      "name": "openingTime",
      "outputs": [
        {
          "name": "",
          "type": "uint256"
        }
      ],
      "payable": false,
      "stateMutability": "view",
      "type": "function"
    },
    {
      "constant": false,
      "inputs": [
        {
          "name": "beneficiary",
          "type": "address"
        }
      ],
      "name": "claimRefund",
      "outputs": [],
      "payable": false,
      "stateMutability": "nonpayable",
      "type": "function"
    },
    {
      "constant": false,
      "inputs": [
        {
          "name": "beneficiary",
          "type": "address"
        }
      ],
      "name": "buyTokens",
      "outputs": [],
      "payable": true,
      "stateMutability": "payable",
      "type": "function"
    },
    {
      "constant": true,
      "inputs": [],
      "name": "PUBLIC_SALES_2_RATE",
      "outputs": [
        {
          "name": "",
          "type": "uint256"
        }
      ],
      "payable": false,
      "stateMutability": "view",
      "type": "function"
    },
    {
      "constant": true,
      "inputs": [],
      "name": "token",
      "outputs": [
        {
          "name": "",
          "type": "address"
        }
      ],
      "payable": false,
      "stateMutability": "view",
      "type": "function"
    },
    {
      "inputs": [
        {
          "name": "_cap",
          "type": "uint256"
        },
        {
          "name": "_goal",
          "type": "uint256"
        },
        {
          "name": "_startDate",
          "type": "uint256"
        },
        {
          "name": "_endDate",
          "type": "uint256"
        },
        {
          "name": "_wallet",
          "type": "address"
        },
        {
          "name": "_token",
          "type": "address"
        }
      ],
      "payable": false,
      "stateMutability": "nonpayable",
      "type": "constructor"
    },
    {
      "payable": true,
      "stateMutability": "payable",
      "type": "fallback"
    },
    {
      "anonymous": false,
      "inputs": [
        {
          "indexed": false,
          "name": "beneficiary",
          "type": "address"
        },
        {
          "indexed": false,
          "name": "amount",
          "type": "uint256"
        }
      ],
      "name": "LogBountyTokenDonation",
      "type": "event"
    },
    {
      "anonymous": false,
      "inputs": [],
      "name": "CrowdsaleFinalized",
      "type": "event"
    },
    {
      "anonymous": false,
      "inputs": [
        {
          "indexed": true,
          "name": "purchaser",
          "type": "address"
        },
        {
          "indexed": true,
          "name": "beneficiary",
          "type": "address"
        },
        {
          "indexed": false,
          "name": "value",
          "type": "uint256"
        },
        {
          "indexed": false,
          "name": "amount",
          "type": "uint256"
        }
      ],
      "name": "TokensPurchased",
      "type": "event"
    }
  ],
  "bytecode": "0x60806040523480156200001157600080fd5b5060405160c08062002070833981018060405281019080805190602001909291908051906020019092919080519060200190929190805190602001909291908051906020019092919080519060200190929190505050858585856064868660016000819055506000831115156200008757600080fd5b600073ffffffffffffffffffffffffffffffffffffffff168273ffffffffffffffffffffffffffffffffffffffff1614151515620000c457600080fd5b600073ffffffffffffffffffffffffffffffffffffffff168173ffffffffffffffffffffffffffffffffffffffff16141515156200010157600080fd5b8260038190555081600260006101000a81548173ffffffffffffffffffffffffffffffffffffffff021916908373ffffffffffffffffffffffffffffffffffffffff16021790555080600160006101000a81548173ffffffffffffffffffffffffffffffffffffffff021916908373ffffffffffffffffffffffffffffffffffffffff1602179055505050504282101515156200019d57600080fd5b8181111515620001ac57600080fd5b816005819055508060068190555050506000600760006101000a81548160ff021916908315150217905550600081111515620001e757600080fd5b620002006200034a640100000000026401000000009004565b6200020a62000374565b808273ffffffffffffffffffffffffffffffffffffffff1673ffffffffffffffffffffffffffffffffffffffff168152602001915050604051809103906000f0801580156200025d573d6000803e3d6000fd5b50600960006101000a81548173ffffffffffffffffffffffffffffffffffffffff021916908373ffffffffffffffffffffffffffffffffffffffff1602179055508060088190555050600081111515620002b657600080fd5b80600a819055505085851115151562000337576040517f08c379a00000000000000000000000000000000000000000000000000000000081526004018080602001828103825260178152602001807f476f616c20697320626967676572207468616e2063617000000000000000000081525060200191505060405180910390fd5b83600b8190555050505050505062000385565b6000600260009054906101000a900473ffffffffffffffffffffffffffffffffffffffff16905090565b604051610d20806200135083390190565b610fbb80620003956000396000f300608060405260043610610133576000357c0100000000000000000000000000000000000000000000000000000000900463ffffffff1680630b97bc861461013e5780630c49c0a2146101695780631515bc2b146101945780632c4e722e146101c3578063355274ea146101ee57806340193883146102195780634042b66f1461024457806347535d7b1461026f5780634b6753bc1461029e5780634bb278f3146102c95780634f935945146102e0578063521eb2731461030f5780637d3d65221461036657806386aa354a146103955780638db1ccac146103c057806398dec601146103eb578063b25f859614610416578063b3f05b9714610441578063b7a8807c14610470578063bffa55d51461049b578063ec8ac4d8146104de578063f7e3f00e14610514578063fc0c546a1461053f575b61013c33610596565b005b34801561014a57600080fd5b5061015361068c565b6040518082815260200191505060405180910390f35b34801561017557600080fd5b5061017e610692565b6040518082815260200191505060405180910390f35b3480156101a057600080fd5b506101a961069d565b604051808215151515815260200191505060405180910390f35b3480156101cf57600080fd5b506101d86106a9565b6040518082815260200191505060405180910390f35b3480156101fa57600080fd5b506102036106b3565b6040518082815260200191505060405180910390f35b34801561022557600080fd5b5061022e6106bd565b6040518082815260200191505060405180910390f35b34801561025057600080fd5b506102596106c7565b6040518082815260200191505060405180910390f35b34801561027b57600080fd5b506102846106d1565b604051808215151515815260200191505060405180910390f35b3480156102aa57600080fd5b506102b36106ec565b6040518082815260200191505060405180910390f35b3480156102d557600080fd5b506102de6106f6565b005b3480156102ec57600080fd5b506102f5610776565b604051808215151515815260200191505060405180910390f35b34801561031b57600080fd5b5061032461078a565b604051808273ffffffffffffffffffffffffffffffffffffffff1673ffffffffffffffffffffffffffffffffffffffff16815260200191505060405180910390f35b34801561037257600080fd5b5061037b6107b4565b604051808215151515815260200191505060405180910390f35b3480156103a157600080fd5b506103aa6107c8565b6040518082815260200191505060405180910390f35b3480156103cc57600080fd5b506103d56107cf565b6040518082815260200191505060405180910390f35b3480156103f757600080fd5b506104006107d4565b6040518082815260200191505060405180910390f35b34801561042257600080fd5b5061042b6107d9565b6040518082815260200191505060405180910390f35b34801561044d57600080fd5b506104566107e0565b604051808215151515815260200191505060405180910390f35b34801561047c57600080fd5b506104856107f7565b6040518082815260200191505060405180910390f35b3480156104a757600080fd5b506104dc600480360381019080803573ffffffffffffffffffffffffffffffffffffffff169060200190929190505050610801565b005b610512600480360381019080803573ffffffffffffffffffffffffffffffffffffffff169060200190929190505050610596565b005b34801561052057600080fd5b50610529610900565b6040518082815260200191505060405180910390f35b34801561054b57600080fd5b50610554610905565b604051808273ffffffffffffffffffffffffffffffffffffffff1673ffffffffffffffffffffffffffffffffffffffff16815260200191505060405180910390f35b60008060006001600080828254019250508190555060005490503492506105bd848461092f565b6105c6836109e2565b91506105dd83600454610a0590919063ffffffff16565b6004819055506105ed8483610a26565b8373ffffffffffffffffffffffffffffffffffffffff163373ffffffffffffffffffffffffffffffffffffffff167f6faf93231a456e552dbc9961f58d9713ee4f2e69d15f1975b050ef0911053a7b8585604051808381526020018281526020019250505060405180910390a36106648484610a34565b61066c610a38565b6106768484610b10565b6000548114151561068657600080fd5b50505050565b600b5481565b66b1a2bc2ec5000081565b60006006544211905090565b6000600354905090565b6000600a54905090565b6000600854905090565b6000600454905090565b600060055442101580156106e757506006544211155b905090565b6000600654905090565b600760009054906101000a900460ff1615151561071257600080fd5b61071a61069d565b151561072557600080fd5b6001600760006101000a81548160ff021916908315150217905550610748610b14565b7f9270cc390c096600a1c17c44345a1ba689fafd99d97487b10cfccf86cf73183660405160405180910390a1565b6000600a546107836106c7565b1015905090565b6000600260009054906101000a900473ffffffffffffffffffffffffffffffffffffffff16905090565b60006008546107c16106c7565b1015905090565b6202a30081565b608281565b606481565b6201518081565b6000600760009054906101000a900460ff16905090565b6000600554905090565b6108096107e0565b151561081457600080fd5b61081c6107b4565b15151561082857600080fd5b600960009054906101000a900473ffffffffffffffffffffffffffffffffffffffff1673ffffffffffffffffffffffffffffffffffffffff166351cff8d9826040518263ffffffff167c0100000000000000000000000000000000000000000000000000000000028152600401808273ffffffffffffffffffffffffffffffffffffffff1673ffffffffffffffffffffffffffffffffffffffff168152602001915050600060405180830381600087803b1580156108e557600080fd5b505af11580156108f9573d6000803e3d6000fd5b5050505050565b607381565b6000600160009054906101000a900473ffffffffffffffffffffffffffffffffffffffff16905090565b66b1a2bc2ec5000081101515156109d4576040517f08c379a00000000000000000000000000000000000000000000000000000000081526004018080602001828103825260338152602001807f596f7572206861766520746f20706179206d696e696d756d206f66203530206681526020017f696e6e657920746f2062757920746f6b656e730000000000000000000000000081525060400191505060405180910390fd5b6109de8282610d0b565b5050565b60006109fe6109ef610d43565b83610d9f90919063ffffffff16565b9050919050565b6000808284019050838110151515610a1c57600080fd5b8091505092915050565b610a308282610ddd565b5050565b5050565b600960009054906101000a900473ffffffffffffffffffffffffffffffffffffffff1673ffffffffffffffffffffffffffffffffffffffff1663f340fa0134336040518363ffffffff167c0100000000000000000000000000000000000000000000000000000000028152600401808273ffffffffffffffffffffffffffffffffffffffff1673ffffffffffffffffffffffffffffffffffffffff1681526020019150506000604051808303818588803b158015610af557600080fd5b505af1158015610b09573d6000803e3d6000fd5b5050505050565b5050565b610b1c6107b4565b15610c6257600960009054906101000a900473ffffffffffffffffffffffffffffffffffffffff1673ffffffffffffffffffffffffffffffffffffffff166343d726d66040518163ffffffff167c0100000000000000000000000000000000000000000000000000000000028152600401600060405180830381600087803b158015610ba757600080fd5b505af1158015610bbb573d6000803e3d6000fd5b50505050600960009054906101000a900473ffffffffffffffffffffffffffffffffffffffff1673ffffffffffffffffffffffffffffffffffffffff16639af6549a6040518163ffffffff167c0100000000000000000000000000000000000000000000000000000000028152600401600060405180830381600087803b158015610c4557600080fd5b505af1158015610c59573d6000803e3d6000fd5b50505050610d01565b600960009054906101000a900473ffffffffffffffffffffffffffffffffffffffff1673ffffffffffffffffffffffffffffffffffffffff16638c52dc416040518163ffffffff167c0100000000000000000000000000000000000000000000000000000000028152600401600060405180830381600087803b158015610ce857600080fd5b505af1158015610cfc573d6000803e3d6000fd5b505050505b610d09610e2e565b565b610d158282610e30565b600a54610d3282610d246106c7565b610a0590919063ffffffff16565b11151515610d3f57600080fd5b5050565b6000610d5d62015180600b54610a0590919063ffffffff16565b42111515610d6e5760829050610d9c565b610d866202a300600b54610a0590919063ffffffff16565b42111515610d975760739050610d9c565b606490505b90565b6000806000841415610db45760009150610dd6565b8284029050828482811515610dc557fe5b04141515610dd257600080fd5b8091505b5092915050565b610e2a8282600160009054906101000a900473ffffffffffffffffffffffffffffffffffffffff1673ffffffffffffffffffffffffffffffffffffffff16610e519092919063ffffffff16565b5050565b565b610e386106d1565b1515610e4357600080fd5b610e4d8282610f3f565b5050565b8273ffffffffffffffffffffffffffffffffffffffff1663a9059cbb83836040518363ffffffff167c0100000000000000000000000000000000000000000000000000000000028152600401808373ffffffffffffffffffffffffffffffffffffffff1673ffffffffffffffffffffffffffffffffffffffff16815260200182815260200192505050602060405180830381600087803b158015610ef457600080fd5b505af1158015610f08573d6000803e3d6000fd5b505050506040513d6020811015610f1e57600080fd5b81019080805190602001909291905050501515610f3a57600080fd5b505050565b600073ffffffffffffffffffffffffffffffffffffffff168273ffffffffffffffffffffffffffffffffffffffff1614151515610f7b57600080fd5b60008114151515610f8b57600080fd5b50505600a165627a7a7230582089ef53bbe6aceb5ffa9354f7a746e95f3257c7ae961217a0f6b3f786b784eaa10029608060405234801561001057600080fd5b50604051602080610d2083398101806040528101908080519060200190929190505050336000806101000a81548173ffffffffffffffffffffffffffffffffffffffff021916908373ffffffffffffffffffffffffffffffffffffffff1602179055507f4101e71e974f68df5e9730cc223280b41654676bbb052cdcc735c3337e64d2d96000809054906101000a900473ffffffffffffffffffffffffffffffffffffffff16604051808273ffffffffffffffffffffffffffffffffffffffff1673ffffffffffffffffffffffffffffffffffffffff16815260200191505060405180910390a1600073ffffffffffffffffffffffffffffffffffffffff168173ffffffffffffffffffffffffffffffffffffffff161415151561013357600080fd5b80600260016101000a81548173ffffffffffffffffffffffffffffffffffffffff021916908373ffffffffffffffffffffffffffffffffffffffff1602179055506000600260006101000a81548160ff0219169083600281111561019357fe5b021790555050610b78806101a86000396000f3006080604052600436106100af576000357c0100000000000000000000000000000000000000000000000000000000900463ffffffff1680632348238c146100b457806338af3eed146100f757806343d726d61461014e57806351cff8d914610165578063685ca194146101a85780638c52dc41146102035780639af6549a1461021a578063c19d93fb14610231578063c6dbdf611461026a578063e3a9db1a146102c1578063f340fa0114610318575b600080fd5b3480156100c057600080fd5b506100f5600480360381019080803573ffffffffffffffffffffffffffffffffffffffff16906020019092919050505061034e565b005b34801561010357600080fd5b5061010c6104ac565b604051808273ffffffffffffffffffffffffffffffffffffffff1673ffffffffffffffffffffffffffffffffffffffff16815260200191505060405180910390f35b34801561015a57600080fd5b506101636104d6565b005b34801561017157600080fd5b506101a6600480360381019080803573ffffffffffffffffffffffffffffffffffffffff1690602001909291905050506105b6565b005b3480156101b457600080fd5b506101e9600480360381019080803573ffffffffffffffffffffffffffffffffffffffff1690602001909291905050506105d6565b604051808215151515815260200191505060405180910390f35b34801561020f57600080fd5b50610218610608565b005b34801561022657600080fd5b5061022f6106e9565b005b34801561023d57600080fd5b5061024661079e565b6040518082600281111561025657fe5b60ff16815260200191505060405180910390f35b34801561027657600080fd5b5061027f6107b5565b604051808273ffffffffffffffffffffffffffffffffffffffff1673ffffffffffffffffffffffffffffffffffffffff16815260200191505060405180910390f35b3480156102cd57600080fd5b50610302600480360381019080803573ffffffffffffffffffffffffffffffffffffffff1690602001909291905050506107de565b6040518082815260200191505060405180910390f35b61034c600480360381019080803573ffffffffffffffffffffffffffffffffffffffff169060200190929190505050610827565b005b6000809054906101000a900473ffffffffffffffffffffffffffffffffffffffff1673ffffffffffffffffffffffffffffffffffffffff163373ffffffffffffffffffffffffffffffffffffffff161415156103a957600080fd5b600073ffffffffffffffffffffffffffffffffffffffff168173ffffffffffffffffffffffffffffffffffffffff16141515156103e557600080fd5b806000806101000a81548173ffffffffffffffffffffffffffffffffffffffff021916908373ffffffffffffffffffffffffffffffffffffffff1602179055507f4101e71e974f68df5e9730cc223280b41654676bbb052cdcc735c3337e64d2d96000809054906101000a900473ffffffffffffffffffffffffffffffffffffffff16604051808273ffffffffffffffffffffffffffffffffffffffff1673ffffffffffffffffffffffffffffffffffffffff16815260200191505060405180910390a150565b6000600260019054906101000a900473ffffffffffffffffffffffffffffffffffffffff16905090565b6000809054906101000a900473ffffffffffffffffffffffffffffffffffffffff1673ffffffffffffffffffffffffffffffffffffffff163373ffffffffffffffffffffffffffffffffffffffff1614151561053157600080fd5b6000600281111561053e57fe5b600260009054906101000a900460ff16600281111561055957fe5b14151561056557600080fd5b60028060006101000a81548160ff0219169083600281111561058357fe5b02179055507f088672c3a6e342f7cd94a65ba63b79df24a8973927b4d05d803c44bbf787d12f60405160405180910390a1565b6105bf816105d6565b15156105ca57600080fd5b6105d381610867565b50565b6000600160028111156105e557fe5b600260009054906101000a900460ff16600281111561060057fe5b149050919050565b6000809054906101000a900473ffffffffffffffffffffffffffffffffffffffff1673ffffffffffffffffffffffffffffffffffffffff163373ffffffffffffffffffffffffffffffffffffffff1614151561066357600080fd5b6000600281111561067057fe5b600260009054906101000a900460ff16600281111561068b57fe5b14151561069757600080fd5b6001600260006101000a81548160ff021916908360028111156106b657fe5b02179055507f599d8e5a83cffb867d051598c4d70e805d59802d8081c1c7d6dffc5b6aca2b8960405160405180910390a1565b6002808111156106f557fe5b600260009054906101000a900460ff16600281111561071057fe5b14151561071c57600080fd5b600260019054906101000a900473ffffffffffffffffffffffffffffffffffffffff1673ffffffffffffffffffffffffffffffffffffffff166108fc3073ffffffffffffffffffffffffffffffffffffffff16319081150290604051600060405180830381858888f1935050505015801561079b573d6000803e3d6000fd5b50565b6000600260009054906101000a900460ff16905090565b60008060009054906101000a900473ffffffffffffffffffffffffffffffffffffffff16905090565b6000600160008373ffffffffffffffffffffffffffffffffffffffff1673ffffffffffffffffffffffffffffffffffffffff168152602001908152602001600020549050919050565b6000600281111561083457fe5b600260009054906101000a900460ff16600281111561084f57fe5b14151561085b57600080fd5b610864816109e4565b50565b60008060009054906101000a900473ffffffffffffffffffffffffffffffffffffffff1673ffffffffffffffffffffffffffffffffffffffff163373ffffffffffffffffffffffffffffffffffffffff161415156108c457600080fd5b600160008373ffffffffffffffffffffffffffffffffffffffff1673ffffffffffffffffffffffffffffffffffffffff1681526020019081526020016000205490506000600160008473ffffffffffffffffffffffffffffffffffffffff1673ffffffffffffffffffffffffffffffffffffffff168152602001908152602001600020819055508173ffffffffffffffffffffffffffffffffffffffff166108fc829081150290604051600060405180830381858888f19350505050158015610991573d6000803e3d6000fd5b508173ffffffffffffffffffffffffffffffffffffffff167f7084f5476618d8e60b11ef0d7d3f06914655adb8793e28ff7f018d4c76d505d5826040518082815260200191505060405180910390a25050565b60008060009054906101000a900473ffffffffffffffffffffffffffffffffffffffff1673ffffffffffffffffffffffffffffffffffffffff163373ffffffffffffffffffffffffffffffffffffffff16141515610a4157600080fd5b349050610a9681600160008573ffffffffffffffffffffffffffffffffffffffff1673ffffffffffffffffffffffffffffffffffffffff16815260200190815260200160002054610b2b90919063ffffffff16565b600160008473ffffffffffffffffffffffffffffffffffffffff1673ffffffffffffffffffffffffffffffffffffffff168152602001908152602001600020819055508173ffffffffffffffffffffffffffffffffffffffff167f2da466a7b24304f47e87fa2e1e5a81b9831ce54fec19055ce277ca2f39ba42c4826040518082815260200191505060405180910390a25050565b6000808284019050838110151515610b4257600080fd5b80915050929150505600a165627a7a7230582020aed09642132f9767f5c98d73c94ef7e407a3f0504fb62468cb42d697d2dc050029",
  "source": "pragma solidity ^0.4.25;\r\n\r\nimport \"../node_modules/openzeppelin-solidity/contracts/math/SafeMath.sol\";\r\n\r\n//import \"../node_modules/openzeppelin-solidity/contracts/crowdsale/validation/TimedCrowdsale.sol\";\r\nimport \"../node_modules/openzeppelin-solidity/contracts/crowdsale/validation/CappedCrowdsale.sol\";\r\nimport \"../node_modules/openzeppelin-solidity/contracts/crowdsale/distribution/RefundableCrowdsale.sol\";\r\n\r\ncontract ShishaCrowdsale is RefundableCrowdsale, CappedCrowdsale {\r\n\r\n    using SafeMath for uint256;\r\n\r\n    uint256 public startDate;\r\n\r\n    //uint256 public constant CROWDSALE_DURATION = 7 days;\r\n    uint256 public constant PUBLIC_SALES_1_PERIOD_END = 1 days;\r\n    uint256 public constant PUBLIC_SALES_2_PERIOD_END = 2 days;\r\n\r\n    uint256 public constant MIN_CONTRIBUTION_AMOUNT = 50 finney; // 0.05 ETH\r\n\r\n    uint256 public constant REGULAR_RATE = 100;\r\n    uint256 public constant PUBLIC_SALES_1_RATE = 130; // 30% bonus\r\n    uint256 public constant PUBLIC_SALES_2_RATE = 115; // 15% bonus\r\n\r\n    event LogBountyTokenDonation(address beneficiary, uint256 amount);\r\n\r\n    constructor(uint _cap, uint _goal, uint _startDate, uint _endDate, address _wallet, address _token) public\r\n        CappedCrowdsale(_cap)\r\n        RefundableCrowdsale(_goal)\r\n        TimedCrowdsale(_startDate, _endDate)\r\n        Crowdsale(REGULAR_RATE, _wallet, IERC20(_token))\r\n    {\r\n        require(_goal <= _cap, \"Goal is bigger than cap\");\r\n        //require(_endDate.sub(_startDate) == CROWDSALE_DURATION, \"Crowdsale duration is not 7 weeks\");\r\n\r\n        startDate = _startDate;\r\n    }\r\n\r\n    function _preValidatePurchase(address beneficiary, uint256 weiAmount) internal view {\r\n        require(weiAmount >= MIN_CONTRIBUTION_AMOUNT, \"Your have to pay minimum of 50 finney to buy tokens\");\r\n\r\n        super._preValidatePurchase(beneficiary, weiAmount);\r\n    }\r\n\r\n    function _getTokenAmount(uint256 weiAmount) internal view returns(uint256) {\r\n        return weiAmount.mul(getRate());\r\n    }\r\n\r\n    function getRate() internal view returns(uint256) {\r\n        \r\n        if (now <= startDate.add(PUBLIC_SALES_1_PERIOD_END)) {\r\n            return PUBLIC_SALES_1_RATE;\r\n        }\r\n\r\n        if (now <= startDate.add(PUBLIC_SALES_2_PERIOD_END)) {\r\n            return PUBLIC_SALES_2_RATE;\r\n        }\r\n\r\n        return REGULAR_RATE;\r\n    }\r\n}",
  "sourcePath": "C:\\work\\LimeAcademy\\project\\contracts\\ShishaCrowdsale.sol",
  "compiler": {
    "name": "solc",
    "version": "0.4.25+commit.59dbf8f1.Emscripten.clang"
  },
  "schemaVersion": "0.9.16",
  "updatedAt": "2018-11-30T14:17:56.510Z"
}