{
  "contractName": "ShishaVotes",
  "abi": [
    {
      "constant": true,
      "inputs": [],
      "name": "defaultVotePrice",
      "outputs": [
        {
          "name": "",
          "type": "uint256"
        }
      ],
      "payable": false,
      "stateMutability": "view",
      "type": "function"
    },
    {
      "inputs": [],
      "payable": false,
      "stateMutability": "nonpayable",
      "type": "constructor"
    },
    {
      "anonymous": false,
      "inputs": [
        {
          "indexed": false,
          "name": "buyer",
          "type": "address"
        },
        {
          "indexed": false,
          "name": "shishaId",
          "type": "uint256"
        }
      ],
      "name": "LogNewShishaVote",
      "type": "event"
    },
    {
      "constant": false,
      "inputs": [
        {
          "name": "_shishaId",
          "type": "uint256"
        }
      ],
      "name": "voteShisha",
      "outputs": [],
      "payable": false,
      "stateMutability": "nonpayable",
      "type": "function"
    },
    {
      "constant": false,
      "inputs": [
        {
          "name": "_shishaId",
          "type": "uint256"
        }
      ],
      "name": "getShishaVotes",
      "outputs": [
        {
          "name": "",
          "type": "uint256"
        }
      ],
      "payable": false,
      "stateMutability": "nonpayable",
      "type": "function"
    }
  ],
  "bytecode": "0x6080604052600560005534801561001557600080fd5b506103b7806100256000396000f300608060405260043610610057576000357c0100000000000000000000000000000000000000000000000000000000900463ffffffff1680637b86bd5f1461005c578063dcb5d54814610087578063ea9bda56146100c4575b600080fd5b34801561006857600080fd5b506100716100ed565b60405161007e919061032e565b60405180910390f35b34801561009357600080fd5b506100ae60048036036100a99190810190610267565b6100f3565b6040516100bb919061032e565b60405180910390f35b3480156100d057600080fd5b506100eb60048036036100e69190810190610267565b610110565b005b60005481565b600060026000838152602001908152602001600020549050919050565b600015156001600083815260200190815260200160002060003373ffffffffffffffffffffffffffffffffffffffff1673ffffffffffffffffffffffffffffffffffffffff16815260200190815260200160002060009054906101000a900460ff1615151415156101b6576040517f08c379a00000000000000000000000000000000000000000000000000000000081526004016101ad9061030e565b60405180910390fd5b600115156001600083815260200190815260200160002060003373ffffffffffffffffffffffffffffffffffffffff1673ffffffffffffffffffffffffffffffffffffffff16815260200190815260200160002060009054906101000a905050507f49edc538564c34666766137c237f3f752eab09b03904f11af46a64516263ea3233826040516102489291906102e5565b60405180910390a150565b600061025f8235610373565b905092915050565b60006020828403121561027957600080fd5b600061028784828501610253565b91505092915050565b61029981610349565b82525050565b6000600d82527f416c726561647920766f746564000000000000000000000000000000000000006020830152604082019050919050565b6102df81610369565b82525050565b60006040820190506102fa6000830185610290565b61030760208301846102d6565b9392505050565b600060208201905081810360008301526103278161029f565b9050919050565b600060208201905061034360008301846102d6565b92915050565b600073ffffffffffffffffffffffffffffffffffffffff82169050919050565b6000819050919050565b60008190509190505600a265627a7a7230582068f5764fee1a461349bd7d8bf84182ea0385b22f95a770ff038902610c24963b6c6578706572696d656e74616cf50037",
  "source": "pragma solidity ^0.4.25;\r\npragma experimental ABIEncoderV2;\r\n\r\n//import \"../node_modules/openzeppelin-solidity/contracts/ownership/Ownable.sol\";\r\nimport \"../node_modules/openzeppelin-solidity/contracts/token/ERC20/ERC20.sol\";\r\n//import \"../node_modules/openzeppelin-solidity/contracts/token/ERC721/ERC721.sol\";\r\nimport \"./ShishaToken.sol\";\r\n\r\ncontract ShishaVotes {//} is ShishaToken {\r\n    \r\n    uint256 public defaultVotePrice = 5;\r\n    mapping(uint256 => mapping(address => bool)) _shishaVotes;\r\n    mapping(uint256 => uint256) _shishaVotesCount;\r\n\r\n    event LogNewShishaVote(address buyer, uint256 shishaId);\r\n\r\n    constructor() public { }\r\n\r\n    function voteShisha(uint256 _shishaId) public {\r\n        require(_shishaVotes[_shishaId][msg.sender] == false, \"Already voted\");\r\n        //TODO why transferFrom is not working?\r\n        //require(ERC20(shishaCoinAddress).transferFrom(address(this), msg.sender, defaultVotePrice), \"Not enough promotion tokens\");\r\n\r\n        _shishaVotes[_shishaId][msg.sender] == true;\r\n        //_shishaVotesCount[_shishaId] = _shishaVotesCount[_shishaId].add(1);\r\n\r\n        emit LogNewShishaVote(msg.sender, _shishaId);\r\n    }\r\n\r\n    function getShishaVotes(uint256 _shishaId) public returns (uint256) {\r\n        return _shishaVotesCount[_shishaId];\r\n    }\r\n}",
  "sourcePath": "C:\\work\\LimeAcademy\\project\\contracts\\ShishaVotes.sol",
  "compiler": {
    "name": "solc",
    "version": "0.4.25+commit.59dbf8f1.Emscripten.clang"
  },
  "schemaVersion": "0.9.16",
  "updatedAt": "2018-11-30T14:17:56.615Z"
}