{
  "contractName": "UserShishas",
  "abi": [
    {
      "constant": false,
      "inputs": [
        {
          "name": "_friendAddress",
          "type": "address"
        }
      ],
      "name": "addNewFriend",
      "outputs": [],
      "payable": false,
      "stateMutability": "nonpayable",
      "type": "function"
    },
    {
      "constant": false,
      "inputs": [],
      "name": "renounceOwnership",
      "outputs": [],
      "payable": false,
      "stateMutability": "nonpayable",
      "type": "function"
    },
    {
      "constant": false,
      "inputs": [
        {
          "name": "_friendAddress",
          "type": "address"
        }
      ],
      "name": "removeFriend",
      "outputs": [],
      "payable": false,
      "stateMutability": "nonpayable",
      "type": "function"
    },
    {
      "constant": true,
      "inputs": [],
      "name": "owner",
      "outputs": [
        {
          "name": "",
          "type": "address"
        }
      ],
      "payable": false,
      "stateMutability": "view",
      "type": "function"
    },
    {
      "constant": true,
      "inputs": [],
      "name": "isOwner",
      "outputs": [
        {
          "name": "",
          "type": "bool"
        }
      ],
      "payable": false,
      "stateMutability": "view",
      "type": "function"
    },
    {
      "constant": true,
      "inputs": [],
      "name": "contractOwner",
      "outputs": [
        {
          "name": "",
          "type": "address"
        }
      ],
      "payable": false,
      "stateMutability": "view",
      "type": "function"
    },
    {
      "constant": false,
      "inputs": [
        {
          "name": "newOwner",
          "type": "address"
        }
      ],
      "name": "transferOwnership",
      "outputs": [],
      "payable": false,
      "stateMutability": "nonpayable",
      "type": "function"
    },
    {
      "inputs": [
        {
          "name": "_contractOwner",
          "type": "address"
        }
      ],
      "payable": false,
      "stateMutability": "nonpayable",
      "type": "constructor"
    },
    {
      "anonymous": false,
      "inputs": [
        {
          "indexed": false,
          "name": "_slogan",
          "type": "string"
        },
        {
          "indexed": false,
          "name": "buyer",
          "type": "address"
        }
      ],
      "name": "LogNewShisha",
      "type": "event"
    },
    {
      "anonymous": false,
      "inputs": [
        {
          "indexed": false,
          "name": "buyer",
          "type": "address"
        }
      ],
      "name": "LogNewFriend",
      "type": "event"
    },
    {
      "anonymous": false,
      "inputs": [
        {
          "indexed": true,
          "name": "previousOwner",
          "type": "address"
        },
        {
          "indexed": true,
          "name": "newOwner",
          "type": "address"
        }
      ],
      "name": "OwnershipTransferred",
      "type": "event"
    }
  ],
  "bytecode": "0x608060405234801561001057600080fd5b50604051602080610a8183398101806040528101908080519060200190929190505050336000806101000a81548173ffffffffffffffffffffffffffffffffffffffff021916908373ffffffffffffffffffffffffffffffffffffffff1602179055506000809054906101000a900473ffffffffffffffffffffffffffffffffffffffff1673ffffffffffffffffffffffffffffffffffffffff16600073ffffffffffffffffffffffffffffffffffffffff167f8be0079c531659141344cd1fd0a4f28419497f9722a3daafe3b4186f6b6457e060405160405180910390a380600360006101000a81548173ffffffffffffffffffffffffffffffffffffffff021916908373ffffffffffffffffffffffffffffffffffffffff16021790555050610941806101406000396000f300608060405260043610610083576000357c0100000000000000000000000000000000000000000000000000000000900463ffffffff16806331f4204714610088578063715018a6146100cb57806380cee8a5146100e25780638da5cb5b146101255780638f32d59b1461017c578063ce606ee0146101ab578063f2fde38b14610202575b600080fd5b34801561009457600080fd5b506100c9600480360381019080803573ffffffffffffffffffffffffffffffffffffffff169060200190929190505050610245565b005b3480156100d757600080fd5b506100e0610495565b005b3480156100ee57600080fd5b50610123600480360381019080803573ffffffffffffffffffffffffffffffffffffffff169060200190929190505050610567565b005b34801561013157600080fd5b5061013a610756565b604051808273ffffffffffffffffffffffffffffffffffffffff1673ffffffffffffffffffffffffffffffffffffffff16815260200191505060405180910390f35b34801561018857600080fd5b5061019161077f565b604051808215151515815260200191505060405180910390f35b3480156101b757600080fd5b506101c06107d6565b604051808273ffffffffffffffffffffffffffffffffffffffff1673ffffffffffffffffffffffffffffffffffffffff16815260200191505060405180910390f35b34801561020e57600080fd5b50610243600480360381019080803573ffffffffffffffffffffffffffffffffffffffff1690602001909291905050506107fc565b005b8060001515600160003373ffffffffffffffffffffffffffffffffffffffff1673ffffffffffffffffffffffffffffffffffffffff16815260200190815260200160002060008373ffffffffffffffffffffffffffffffffffffffff1673ffffffffffffffffffffffffffffffffffffffff16815260200190815260200160002060009054906101000a900460ff16151514151561034b576040517f08c379a000000000000000000000000000000000000000000000000000000000815260040180806020018281038252600f8152602001807f416c726561647920667269656e6473000000000000000000000000000000000081525060200191505060405180910390fd5b60018060003373ffffffffffffffffffffffffffffffffffffffff1673ffffffffffffffffffffffffffffffffffffffff16815260200190815260200160002060008473ffffffffffffffffffffffffffffffffffffffff1673ffffffffffffffffffffffffffffffffffffffff16815260200190815260200160002060006101000a81548160ff021916908315150217905550600260003373ffffffffffffffffffffffffffffffffffffffff1673ffffffffffffffffffffffffffffffffffffffff168152602001908152602001600020600081548092919060010191905055507fe0df9d8bcf957fdc239c931baf14df07c93bcf31542cd0ce27c7cc4654d57ea482604051808273ffffffffffffffffffffffffffffffffffffffff1673ffffffffffffffffffffffffffffffffffffffff16815260200191505060405180910390a15050565b61049d61077f565b15156104a857600080fd5b600073ffffffffffffffffffffffffffffffffffffffff166000809054906101000a900473ffffffffffffffffffffffffffffffffffffffff1673ffffffffffffffffffffffffffffffffffffffff167f8be0079c531659141344cd1fd0a4f28419497f9722a3daafe3b4186f6b6457e060405160405180910390a360008060006101000a81548173ffffffffffffffffffffffffffffffffffffffff021916908373ffffffffffffffffffffffffffffffffffffffff160217905550565b8060011515600160003373ffffffffffffffffffffffffffffffffffffffff1673ffffffffffffffffffffffffffffffffffffffff16815260200190815260200160002060008373ffffffffffffffffffffffffffffffffffffffff1673ffffffffffffffffffffffffffffffffffffffff16815260200190815260200160002060009054906101000a900460ff16151514151561066d576040517f08c379a000000000000000000000000000000000000000000000000000000000815260040180806020018281038252600b8152602001807f4e6f7420667269656e647300000000000000000000000000000000000000000081525060200191505060405180910390fd5b6000600160003373ffffffffffffffffffffffffffffffffffffffff1673ffffffffffffffffffffffffffffffffffffffff16815260200190815260200160002060008473ffffffffffffffffffffffffffffffffffffffff1673ffffffffffffffffffffffffffffffffffffffff16815260200190815260200160002060006101000a81548160ff021916908315150217905550600260003373ffffffffffffffffffffffffffffffffffffffff1673ffffffffffffffffffffffffffffffffffffffff16815260200190815260200160002060008154809291906001900391905055505050565b60008060009054906101000a900473ffffffffffffffffffffffffffffffffffffffff16905090565b60008060009054906101000a900473ffffffffffffffffffffffffffffffffffffffff1673ffffffffffffffffffffffffffffffffffffffff163373ffffffffffffffffffffffffffffffffffffffff1614905090565b600360009054906101000a900473ffffffffffffffffffffffffffffffffffffffff1681565b61080461077f565b151561080f57600080fd5b6108188161081b565b50565b600073ffffffffffffffffffffffffffffffffffffffff168173ffffffffffffffffffffffffffffffffffffffff161415151561085757600080fd5b8073ffffffffffffffffffffffffffffffffffffffff166000809054906101000a900473ffffffffffffffffffffffffffffffffffffffff1673ffffffffffffffffffffffffffffffffffffffff167f8be0079c531659141344cd1fd0a4f28419497f9722a3daafe3b4186f6b6457e060405160405180910390a3806000806101000a81548173ffffffffffffffffffffffffffffffffffffffff021916908373ffffffffffffffffffffffffffffffffffffffff160217905550505600a165627a7a72305820febe4980a515d41a0cf5175986365b6ddeaf645b628770e5906bb6a6310708660029",
  "source": "pragma solidity ^0.4.25;\r\n\r\nimport \"../node_modules/openzeppelin-solidity/contracts/ownership/Ownable.sol\";\r\nimport \"./User.sol\";\r\n\r\ncontract UserShishas is User {\r\n\r\n    address public contractOwner;\r\n\r\n    mapping(address => mapping(address => bool)) shishaList;\r\n    mapping(address => uint) shishaCount;\r\n\r\n    event LogNewShisha(string _slogan, address buyer);\r\n\r\n    constructor(address _contractOwner) public {\r\n        contractOwner = _contractOwner;\r\n    }\r\n\r\n    // modifier onlyNewFriends(address _friendAddress) {\r\n    //     require(friendList[msg.sender][_friendAddress] == false, \"Already friends\");\r\n    //     _;\r\n    // }\r\n\r\n    // modifier alreadyFriends(address _friendAddress) {\r\n    //     require(friendList[msg.sender][_friendAddress] == true, \"Not friends\");\r\n    //     _;\r\n    // }\r\n\r\n    // function getShisha(bytes flavour, uint256 tokens) public {\r\n    //     require(tokens > price, \"The tokens sent was too low\");\r\n\r\n    //     billboardOwner = msg.sender;\r\n    //     historyOfOwners.push(msg.sender);\r\n    //     moneySpent[msg.sender] += tokens;\r\n    //     slogan = newSlogan;\r\n    //     price = tokens;\r\n\r\n    //     require(ERC20(billToken).transferFrom(msg.sender, address(this), tokens));\r\n\r\n    //     emit LogBillboardBought(msg.sender, tokens, newSlogan);\r\n    // }\r\n\r\n    // function addNewFriend(address _friendAddress) public onlyNewFriends(_friendAddress) {\r\n    //     friendList[msg.sender][_friendAddress] = true;\r\n    //     friendsCount[msg.sender]++;\r\n    // }\r\n\r\n    // function removeFriend(address _friendAddress) public alreadyFriends(_friendAddress) {\r\n    //     friendList[msg.sender][_friendAddress] = false;\r\n    //     friendsCount[msg.sender]--;\r\n    // }\r\n}",
  "sourcePath": "C:\\work\\LimeAcademy\\project\\contracts\\UserShishas.sol",
  "compiler": {
    "name": "solc",
    "version": "0.4.25+commit.59dbf8f1.Emscripten.clang"
  },
  "schemaVersion": "0.9.12",
  "updatedAt": "2018-11-26T13:19:36.963Z"
}